:02000004080AE8
:1000000000000A08F0EC0A080000060006000501DE
:08001000040279050000000064
:040018000CB70A080F
:1000200009480A4908B5884205D0094A824202D0E7
:10003000121A08F00AFC0748074A0021121A08F0B1
:100040002AFC064808BD00BF000000204CEB0A084F
:100050007C0100207C010020480900204809002084
:1000600070B505F043F9074B074C1E46E41AA40887
:100070000025A54204D056F8253098470135F8E709
:1000800070BD00BF8CEA0A0838EB0A0800F016B908
:1000900008B500F0DFF8BDE8084005F0E9B803F066
:1000A000C7BF03F0CDBF000008B5034A00210C20F4
:1000B00003F0D2FEFEE700BFC93C0A080078B0FAA0
:1000C00080F0400970470123037070477047006A51
:1000D0000368DB68184770B5436804468569866A1B
:1000E00053B10436AE4204D955F8040BFFF7D9FFDB
:1000F000F8E76068FFF7D5FF204670BD10B50446ED
:10010000094B036005F08CFB214605F088FD04F0E7
:10011000A1FC04F081FC2046044B40F8043B05F0B0
:1001200085FC204610BD00BF40B70A0828B70A0862
:1001300010B50446FFF7E2FF2046242106F0F2FC4A
:10014000204610BD10B50446024B0360FFF7D6FFF2
:10015000204610BD58B70A0810B50446FFF7F2FF55
:100160002046242106F0DEFC204610BD10B50A4CC6
:100170006369C01A636898420DD303F0B5FD6061EE
:10018000064800F0FDF9064800F026FEBDE81040E4
:10019000034800F007BE10BD48000020D801002031
:1001A0002002002010B50C4C2369C01A2368984225
:1001B00010D303F099FD2061084C094800F04BFF73
:1001C000E36801330A2BE36004D1054800F050FED8
:1001D0000023E36010BD00BF48000020680000203D
:1001E000EC01002038B50D4C0546A369A268C31A7E
:1001F000934211D3052006F05DFC094B01281860DD
:100200000AD1084AA5611378074883F001031370E7
:10021000BDE8384001F014B838BD00BF48000020E8
:100220001C020020E8010020C401002010B5074C8A
:10023000E369C01AE368984207D303F055FDE06113
:10024000BDE81040024800F065BC10BD4800002029
:100250008001002010B503F047FD0446FFF7C2FF00
:100260002046FFF783FF2046FFF79CFF2046FFF75D
:10027000DDFF0A4800F0B8FF094B08481B7813B1AE
:1002800001F066F804E001F02DF8044800F0DEFF0C
:10029000BDE81040034800F059BD00BFC401002074
:1002A000E8010020B401002008B504F0D3FB04F0FD
:1002B000B9FB10B903F0C8FCF7E708BD10B5FFF7AC
:1002C000F3FF0021052006F0CBFB0F4C0F4800F098
:1002D000A7FC0F4800F0C2FA204600F083FF0D484B
:1002E00000F022FD0C4800F0C2FD0C4800F044F97B
:1002F0000B4800F055FD4FF47A7004F083FF204660
:10030000BDE8104000F09CBFC40100208001002027
:10031000E0010020B4010020EC010020D801002001
:100320002002002070B5054604684368142606FBC9
:100330000346A64204D0204606F068FA1434F8E7D3
:10034000286803F07DFE284670BD8842F8B5064651
:100350000C46154616D9904215D2A2F114056C1A16
:10036000A1F114070444AF421CD02CB12946204609
:1003700006F03CFA2B7C2374284606F047FA143D1D
:10038000143CF0E70ED0AC420CD02EB121463046E2
:1003900006F02CFA237C3374204606F037FA143426
:1003A0001436F0E7F8BD2DE9F04100230360436007
:1003B00083604E6804469E420F4624DD4FF01408C9
:1003C00008FB06F003F034FE0546E0B194E80600B1
:1003D00008FB0212FFF7B9FF206803F031FE256029
:1003E000A6603E687B6808FB0368464509D02DB1CE
:1003F0003146284606F073FA337C2B7414361435D4
:10040000F3E77B6863602046BDE8F081F0B5044601
:100410008DB00023174600930193029304F01AFB5A
:1004200025460646694603A8FFF7BDFF03A906A8AF
:10043000FFF7B9FF164B06A945F8043B09A8FFF7DB
:10044000B2FF09AA3946284605F04BFD09A8FFF777
:1004500069FF06A8FFF766FF0E4B2662236003A81C
:10046000FFF760FF0C4B236004F0F4FA4FF41651D1
:1004700004F0CEFA05F0D4F9214605F0C6FC684632
:10048000FFF750FF2046054B23600DB0F0BD00BFC5
:1004900028B70A0840E10A0840B70A0858B70A080E
:1004A0002DE9F743204CDFF8B09003F08DFC1F4D91
:1004B0001F4F01224FF416512046FFF7A7FF1D4E94
:1004C0004A461D4920461D4C06F01EFB294638466B
:1004D00000F0CEF832462146194800F06DFE2A465B
:1004E0002146184800F040F8DFF870802A4621467F
:1004F000154800F049FC2A462146144800F01EFC2D
:100500003146404600F0D1FD4A461149404606F0CA
:10051000FBFA00972B46324621460E4800F0F3FACC
:1005200003B0BDE8F08300BF900100202000002050
:10053000E00100206800002045010A0800000020BA
:10054000C4010020D801002020020020B4010020B6
:10055000D7000A08800100207C010020EC01002067
:100560000021112006F07CBA10B5044680E8060090
:10057000FFF7F6FF204610BD7047000000000000A6
:1005800038B504460568112006F0A7FA06F0B6FF54
:1005900007A3D3E9002307F017F8646802460B4667
:1005A000D4E9000106F05EFEC5E9000138BD00BFD8
:1005B0007B14AE47E17AB43F03F006BC70470000FD
:1005C0007FB5024613790846956833B13DB90C49A9
:1005D00004B0BDE8704005F0C3BF0A4B00E00A4B11
:1005E000167B0A4C0A49527B012E08BF2146029213
:1005F00001910095074A002106F027F804B070BD6C
:100600009DB70A0804E10A088CB70A0895B70A08DA
:1006100099B70A08B3B70A08083002F021BC07B539
:1006200002AB03F8011D01221946083002F018FC44
:1006300003B05DF804FB10B504462C2106F072FAF5
:10064000204610BD38B5044613460A460649002523
:10065000057245720968083002F09FFB034B656024
:100660002360204638BD00BF480200207CB70A083E
:1006700010B50446016040F28440FFF710FDC8B198
:100680006422002380F860240C4AC37180F83C3453
:1006900080F83D3480F86A34C0F8783480F87C34CF
:1006A00080F87D34064BC0F87024012280F8742451
:1006B000C0F86C346060204610BD00BF70B70A08F7
:1006C0005C0700202DE9F041ACB003AB00220193A0
:1006D000054609AB594921A8079302928DF80C20D1
:1006E00008928DF82420FFF7ADFF9DF88C302BB9D0
:1006F00004F0B0F9524905F046FF96E004F0AAF97B
:10070000504905F040FF00231E2219A923A802F03A
:10071000FBF9002840F389802CAB184410F84D3CBD
:100720000A2BF0D10FAB19A80D9308F03FFE2CACAB
:1007300019AB0F2803EB000644F8640D07D900221B
:1007400021460DA806F038FA139B0D900F93324600
:1007500019A90D9806F06BFA139B0D9A00260E93BB
:100760003D21D6540DA8324606F0D2FA324607464D
:100770000A210DA806F0CCFA80463B4632460DA968
:10078000204606F02FFB214601A806F055FA204628
:1007900006F02EFA43467A1C0DA9204606F022FBED
:1007A000214607A806F048FA204606F021FA264915
:1007B00001A806F0C2FA30B107982C6807F012FFC2
:1007C000C4E902012DE0214901A806F0B6FA30B1D2
:1007D00007982C6807F006FFC4E9000121E01C49D6
:1007E00001A806F0AAFA30B107982C6807F0FAFEC3
:1007F000C4E9040115E0174901A806F09EFA28B1E2
:1008000007982C6807F0F1FEA0610AE0124901A8E0
:1008100006F093FA28B107982C6807F0E3FEC4E9C4
:1008200008010DA806F0E4F96DE707A806F0E0F965
:1008300001A806F0DDF92CB0BDE8F081D1B70A08B7
:10084000E7B70A08F9B70A080AB80A080EB80A088A
:1008500014B80A082BE70A081DB80A08F0B53D4B82
:10086000456885B03C4A05F58C6600930023044634
:100870008DF80430029201278DF80D3004226B466A
:1008800005F26C4130468DF80C7001F03BFEB0B3C0
:100890002E6005F23C46304602F078FA394628468A
:1008A00002F0B9FC014628B12946304602F061F851
:1008B00028B305E0284602F0AEFC0028F4D11EE083
:1008C00095F83C3413F0700F19D0244B1E6004F0DF
:1008D000C1F8234905F057FE04F0BCF8214905F0A2
:1008E00052FE04F0B7F8204905F04DFE04F0B2F8CE
:1008F0001C4905F048FE2046FFF7E4FE27E004F01F
:10090000A9F81A4905F03FFE04F0A4F863680A222A
:1009100093F8601405F08FFE04F09CF863680A22D7
:1009200093F8691405F087FE216800220023C1E9CD
:10093000002321680020C1E902232168C1E90423C2
:10094000236800229A6123680949C3E9080105B0B8
:10095000F0BD00BF70B70A0800093D004802002042
:1009600028B80A0831B80A084BB80A0862B80A0859
:100970000000384030B50446406899B01B4900F289
:100980003C4002F059FA40F2016218490DA8FFF705
:1009900059FE9DF83C302BB904F05CF8144905F081
:1009A000F2FD20E02368D3E90201D3E90845CDE94F
:1009B00006459A690492D3E90445CDE90245D3E995
:1009C0000023CDE9002302460B4609A8094905F09A
:1009D000A1FF09990DA805F0C3FD0FA802F0D6F9F3
:1009E00009A805F013FF19B030BD00BFD1B70A0840
:1009F0006DB80A0887B80A0803F0E6B930B502688E
:100A000085B05368946813F0010F4FEA63031568CB
:100A100018BFE25868461C4418BF555905F0E6FE59
:100A200069462046A8470446684605F0EFFE204682
:100A300005B030BD38B50446084605F060FF06F045
:100A40006FFDA568C5E90001E068FFF793FF01208D
:100A500038BD38B50446084605F051FF06F060FD84
:100A6000A568C5E90201E068FFF784FF012038BDF1
:100A700038B50446084605F042FF06F051FDA5686A
:100A8000C5E90401E068FFF775FF012038BD38B5FE
:100A90000446084605F033FF06F042FDA568C5E9A7
:100AA0000801E068FFF766FF012038BD38B504464D
:100AB000084605F01FFF054607F072F904F068FCD0
:100AC000A3689D61E068FFF755FF012038BD022A49
:100AD00038B5044605D0032A0FD0012A11D10B687E
:100AE00009E00C200D68FFF7DAFA034618B195E823
:100AF000070083E80700236003E00C21006806F08C
:100B000011F8002038BD10B580E80E00029BC360CC
:100B100010BD000010B58EB0044603F0CDF90028DA
:100B200035D023686268D3E90201CDE90601D3E933
:100B30000401CDE90401D3E90001CDE90201136903
:100B40001449019393680AA800930CCA05F0E2FEC9
:100B5000114B0A9A1B7811498DF8003008A83C23E4
:100B600004F0CEF9099C7CB16368013B63605BB91A
:100B7000236820469B689847A368013BA3601BB984
:100B800023682046DB6898470AA805F03FFE0EB0B0
:100B900010BD00BFC5B80A08280200204FB90A08D6
:100BA0000023092203F070B9F0B5054687B01C4652
:100BB0000C2000238DE806000F4616460493FFF72D
:100BC0006EFA10B1076046608460124B0290059384
:100BD000114B10200493FFF762FA044680B1002302
:100BE0008360049B33B1022202A99847059BE3600E
:100BF000049BA36021462A46084804F056F80446A0
:100C0000049B1BB102A9032208469847204607B05F
:100C1000F0BD00BFFD090A08CF0A0A08834C0A0884
:100C200030B504462B4D8BB014212B4804F054F8FA
:100C300021682846FFF7B4FF216828481031FFF7E4
:100C4000AFFF216826480831FFF7AAFF2168284630
:100C5000FFF7A6FFA1682348FFF7A2FFA16822487B
:100C60000831FFF79DFFA16820481031FFF798FF7A
:100C70001F4B0025089309950AAA234612E906008E
:100C80001C48FFF791FF1C4B0795069306AA2346C5
:100C900006CA1A48FFF788FF194B0595049304AA62
:100CA000234606CA1748FFF77FFF174B03950293A9
:100CB00002AA234606CA1548FFF776FF144B1548CB
:100CC0008DE8280023469DE80600FFF76DFF0BB076
:100CD00030BD00BF5AB90A085407002064B90A0899
:100CE0006CB90A0878B90A0892B90A08AAB90A08B8
:100CF000350A0A08C1B90A08530A0A08DCB90A0801
:100D0000710A0A08F5B90A08AD0A0A0812BA0A08EF
:100D10008F0A0A081EBA0A08024B01221A7003F051
:100D200053B800BF28020020704710B504460121C7
:100D3000062005F095FE0023236010BD10B5044683
:100D40008160C260FFF7F1FF204610BD10B5C36897
:100D500081680446D3E90823D1E9000106F0C4FE06
:100D600010B10123237100E02071217963798B4256
:100D700002D0062005F085FE2379637110BD03F0D3
:100D800023B803F021B8000010B5044680E806003F
:100D9000024800F0F0FF204610BD00BF2C020020EA
:100DA0007047000070B505460A4801F0A1F80146F9
:100DB000044607F00FFA60B9204606F0B1FB2E6832
:100DC0006D6802460B46D5E9020106F04BFAC6E90A
:100DD000040170BD2C02002070B505460A4801F0E0
:100DE000B1F80146044607F0F5F960B9204606F06F
:100DF00097FB2E686D6802460B46D5E9040106F0A4
:100E000031FAC6E9020170BD2C02002010B502F0D3
:100E1000DBFFBDE8104006230B220221014800F051
:100E2000A3BF00BF2C02002010B5044605F09AFDB8
:100E300003F076FD206801F00AFA2068002101F035
:100E400019FA2068002101F01AFA2068002101F047
:100E50001BFA2068002101F01CFA2068002101F033
:100E60001DFA20680021BDE8104001F01CBA70474F
:100E7000F8B54FF0FF3304461E460127E268E169EA
:100E8000914220D020696169156817B9AB4206DB31
:100E900001E02B462E46AE42A8BF2E461D460B1F34
:100EA0009A4204D00432E26000272B46E6E7FFF7BF
:100EB000F8F8A3691A1DA2615B6803F5007223614B
:100EC0006261E360F0E7E26A9B1B1361F8BD2DE904
:100ED000F0470446C809451C0330082838BF0820DD
:100EE000606080000F46FFF7DAF866688046761B80
:100EF000760800EB8609CA46206009EB8505554552
:100F000006D94FF40070FFF7CAF84AF8040BF6E769
:100F100058F8262007F07F0702F5007323612B1F86
:100F2000636255F8043CC4F8149003F50071E36162
:100F300003EB8703E2602162A260A361BDE8F08752
:100F40002DE9F047426A056843680F46511BA3EB41
:100F5000A1010129044658D84169561AB610013634
:100F600006F10108B3EB480F17D9C8EB03035B0880
:100F700005EB8305A94202F1040204D9521A930831
:100F800031D0284606E0521A93084FEA86002AD04C
:100F9000801A284407F064FC25E0002B14BF994612
:100FA0004FF0010902339944B9F1804F01D305F0A4
:100FB000CAFD4FEA8900FFF772F8626A616904327C
:100FC000C8EB0905521A6D089308824600EB8505A7
:100FD00002D0284607F044FC2068FFF762F8C4F806
:100FE00000A0C4F8049065612B6806F18046E360B8
:100FF000013E03F50073236105EB8603636255F838
:101000002630E36103F5007323624FF40070656AD4
:10101000FFF745F86860A3693A6803B11A60636A2C
:101020001A1D62625B6803F50072E3612262A361CC
:10103000BDE8F08738B5046A8269043CA2420346E1
:1010400006D0096802B111609A6904329A6138BD0C
:10105000FFF776FF38BD37B50446C56A006801F072
:10106000A9F828602068E56A01F0B8F8686020688F
:10107000E56A01F0C7F8A860E36A02A99B68201D31
:1010800041F8043DFFF7D6FF03B030BDF0B505468B
:1010900090E800500C468768C6680FC985E80F00C5
:1010A00084E80050A760E660F0BDF0B50546002476
:1010B0008BB068460F462146009401940294039435
:1010C000049405940694079408940994FFF7FFFE8E
:1010D0006C60AC60EC602C616C61AC61EC612C62AA
:1010E0006C62AC622146281DFFF7F1FE009B8BB1BC
:1010F00002A905F10C00FFF7C9FF06A905F11C00C4
:10110000FFF7C4FF6B68009A00936A60AB68019AAE
:101110000193AA60009B059C099E53B10436A64228
:1011200004D954F8040BFEF7BCFFF8E70098FEF76B
:10113000B8FFEF620F20FEF7B2FF044608B101F0DE
:101140001FF828462C60FFF76FFE28460BB0F0BD55
:1011500002F03ABE10B504464FF07E5004F018F984
:10116000206800F085FC2068032100F0C7FD20689E
:1011700001210368DB6A984720681F2103689B6A86
:1011800098472068022100F068FB2322114620685E
:1011900000F060FB20684FF6E07100F063FB206810
:1011A000012100F065FB20680249BDE8104005F010
:1011B000D7B900BF2EBA0A08F8B5044630200E464B
:1011C0001546FEF76CFF074620B10A230B220C21BF
:1011D00000F070FB204627606660A560FFF7BAFF4D
:1011E0002046F8BD704700001FB504460121006885
:1011F00000F033FB20681E222D2100F02BFB002283
:1012000020684FF6FF7100F030FB0121206800F0EC
:101210002FFB246804F0ABF9074B024607496846E8
:1012200004F052F90099204605F09AF9684605F055
:10123000EDFA04B010BD00BF37BA0A08B4050020AB
:101240000068002103689B6A184700002DE9F843F5
:1012500004460121006800F000FB00224FF6FF71F8
:10126000206800F002FB0121206800F001FB3A2613
:101270000025012DA36805D0022D07D01A68DFF8DC
:10128000588006E05A68DFF8548002E09A68DFF878
:10129000508004F10C070FFA86F90E49384602F027
:1012A000DFFE4A460821206800F0D4FA4146206853
:1012B00005F056F94A462021206800F0CBFA0135A6
:1012C0003946206805F04CF90A36032DB6B2D0D164
:1012D000BDE8F8834CBA0A0840BA0A0844BA0A08BA
:1012E00048BA0A0813B504460121006800F0B5FAAF
:1012F00000224FF6FF71206800F0B7FA2D225F211F
:10130000206800F0A7FA1149206805F029F941F298
:101310008832A3681B69934209DC4FF6E07240F201
:10132000DC518B42CCBF13464FF4FC6301E04FF419
:10133000784320684E210268019328230093546A61
:1013400046233C22A04702B010BD00BF50BA0A0895
:101350002DE9F84304460221006800F07EFA0022DD
:101360004FF6FF71206800F080FA0121206800F03C
:101370007FFA34260025012D636806D0022D09D09E
:10138000D3E90023DFF85C8008E0D3E90423DFF829
:10139000588003E0DFF85480D3E9022304F10C07FE
:1013A0000FFA86F90E49384602F05AFE4A460821DD
:1013B000206800F04FFA4146206805F0D1F84A460F
:1013C0006421206800F046FA01353946206805F0AE
:1013D000C7F81436032DB6B2CDD1BDE8F88300BFEF
:1013E00069BA0A0856BA0A085DBA0A0862BA0A084F
:1013F00002F0EABC2DE9F04F1E4685B0BDF9383049
:1014000015469A1A002AB8BF52420092721A002A50
:10141000B8BF524201920C46009A019981468A4215
:10142000BDF83CA005DD32461E46134622462C463A
:101430001546B44205DD2A461D461346224634466B
:1014400016465A1B002AC4EB0608B8BF52421FFAC0
:1014500088F803920FFA88F702229D42B4BF012355
:101460004FF0FF3397FBF2F70293B4421FDC019A6F
:10147000009B48469342D9F80030C8BF2246D3F8B3
:1014800010B0C8BF29465346DCBF2A462146D8477C
:10149000039BFF1ABBB21FB2002F05DA029A08EBBA
:1014A000030715442DB23FB2013424B2DDE705B085
:1014B000BDE8F08F2DE9F347044691460D46984666
:1014C000BDF82C600768BDF928A00096FF69B847F1
:1014D00023680AF1FF3200964A44DF6929464346F1
:1014E000204612B2B847236800969F694A46534681
:1014F00029462046B847236808F1FF310A96294457
:101500009D694A4653462046AC4609B202B0BDE842
:10151000F047604737B5013BBDF8185013440468E5
:101520001BB20093019564690B46A04703B030BD20
:1015300037B5BDF8185004688DE82400013B0B4412
:1015400064691BB2A04703B030BD2DE9F3470546DF
:1015500017460C46BDF92880BDF82C9001EB030A14
:1015600054450BDA2B68CDF800909E69214643461E
:101570003A4628460134B04724B2F1E702B0BDE84C
:10158000F08713B5B0F90E20046801910092002293
:10159000B0F90C30646A1146A04702B010BD704724
:1015A000F0B50A2985B004460D4607D1436A027E8C
:1015B0005978438A01FB0233438249E00D2949D01F
:1015C000067E0368B0F91220B0F910100296C68AA0
:1015D0000196868A00961E6B2B46B047E37E94F9EF
:1015E0001DE0ED1A636ABEF1000F03EB850213F8EC
:1015F0002560557815DDE08AA38A834211D0237EC9
:101600000190218A03FB05F006FB031100B2276855
:101610000090B4F912207F6A0EFB03F309B2204652
:10162000B847227E94F91D30208A91B2334403FBDF
:10163000010394F828001BB2238258B1B4F90C00BE
:1016400006FB1202934205DD638A01FB05356582C4
:1016500000232382012005B0F0BD0000817603291C
:1016600013D8DFE801F002060A0E0F4B03620F4B9E
:1016700010E00F4B03620F4B0CE00F4B03620F4B5C
:1016800008E00F4B03620F4B04E0042383760E4BFC
:1016900003620E4B436201234377036A1A78C276D2
:1016A0005B780377704700BF14DA0A0898D80A08F5
:1016B000A0C80A081CD30A0844C30A0824C70A0899
:1016C000EECC0A08A0D10A084ABB0A0898D40A0836
:1016D0004281C2814FF6FF7238B50023084D436046
:1016E0004376038243820123018181810560037671
:1016F000C282828280F828300421FFF7AFFF38BD14
:1017000078BA0A082DE9F04F8BB09246BDF8502008
:1017100004460492BDF854200D460592C27E9DF801
:1017200058609A4205D8017F994202D39B1ADBB2D6
:1017300000E00023B4F90C20AA427BDDB4F90E20AE
:10174000524577DD616A9A0011F82330079206FB53
:101750000353002B0A446DDD537806FB03A3002BD3
:1017600068DD53880FFA86F802339BB20293002398
:101770000393B3B20693626A07999DF90C300A4449
:101780005278934256DA06999BB21FFA8AF203FB0B
:101790000121134409B21BB208914FF000090993CB
:1017A000626A07984FFA89F1125C5FFA89F39142F5
:1017B0003CDA5A0706D1029B0298226A01339BB297
:1017C000175C02933B060DD5012E05D123682944F1
:1017D000D3F810B0049B10E0069B049A01FB035160
:1017E000236814E0049B059A93421AD0012E09D174
:1017F00023682944D3F810B01346099A09B2204649
:10180000D8470EE0069B059A01FB0351236801921D
:10181000CDF80080D3F824B0089A434609B2204698
:10182000D8477F00FFB209F10109B9E7039B0133F3
:101830000393A0E70BB0BDE8F08F70B4BDF80C4087
:10184000BDF810509DF8146004950596039470BC83
:10185000FFF758BF018242827047002908BF01216B
:1018600001767047C182818270478182C28270474F
:1018700080F82810704702F0A7BA13B5B0F90E200F
:101880000468019100920022B0F90C30646A11469C
:10189000A04702B010BD704710B50446302105F0D6
:1018A00041F9204610BD00000146014802F0CABFC0
:1018B0005C070020F8B504461D460F4616468021F9
:1018C000A022FFF705FF064B84F82B70236001234D
:1018D00084F82C6084F82D5084F82A302046F8BD16
:1018E000B4BA0A0838B504460D4690F82C00002119
:1018F00005F0C7F8002194F82B0005F0C2F828463F
:10190000FFF7D2FF94F82B000121BDE8384005F025
:10191000B8B8002914BF21212021FFF7E3BF38B553
:1019200004460D4690F82C00012105F0AAF800218C
:1019300094F82B0005F0A5F82846FFF7B5FF94F8BA
:101940002B000121BDE8384005F09BB82DE9F04798
:1019500080460F784C1C47B32646404616F8021BBB
:10196000FFF7C0FF6578B24625F07F0905F07F05D7
:101970002C465FFA89F9013CE4B2FF2C05D01AF835
:10198000011B4046FFF7CBFFF5E77419B9F1000FD3
:1019900002D1013FFFB2DEE7705D0134FF2808BFCE
:1019A0004FF4FA7003F02EFCF3E7BDE8F087000077
:1019B00070B50446002580F82F5080F82E500E4652
:1019C00090F82C00012105F04BF8012194F82B0030
:1019D00005F046F8254802F05DFE0821234802F094
:1019E0001DFF0121214802F05AFE29461F4802F03E
:1019F00059FE94F82A3053B11C4802F04BFE0121E5
:101A00001A4802F04CFE2946184802F04BFE94F8A2
:101A10002B00002105F035F894F82D00E8B10121E4
:101A200005F01EF8012194F82D0005F02AF84FF476
:101A3000FA7003F0E7FB002194F82D0005F021F87F
:101A40004FF4FA7003F0DEFB94F82D00012105F04D
:101A500018F84FF4FA7003F0D5FB2EB1314620464A
:101A6000BDE87040FFF772BF70BD00BF5C0700208B
:101A70000149FFF79DBF00BFE8BA0A082DE9F04110
:101A8000044688461F4616462A219DF81850FFF73F
:101A900029FF20460021FFF742FF94F82E10204630
:101AA0004144C9B2FFF73BFF20460021FFF737FF53
:101AB00094F82E1020463944C9B2FFF730FF204673
:101AC0002B21FFF70FFF20460021FFF728FF94F896
:101AD0002F1020463144C9B2FFF721FF20460021D4
:101AE000FFF71DFF94F82F1020462944C9B2FFF7D5
:101AF00016FF2046BDE8F0412C21FFF7F3BEF7B5F5
:101B00001C46B0F90C3005468B42BDF8207031DD23
:101B1000B0F90E0090422DDD13198342C8BF841A1C
:101B2000D2B2C8BF24B2561E2644CBB2F6B2194672
:101B300000962846FFF7A2FF012195F82C0004F03B
:101B4000A0FF002195F82B003E0AFFB204F099FF98
:101B5000A4B23CB13046FFF7A7FE3846FFF7A4FE1B
:101B6000013CF5E795F82B00012103B0BDE8F040FA
:101B700004F087BF03B0F0BDF7B51C46B0F90C30D8
:101B800005468B42BDF8206030DDB0F90E00904272
:101B90002CDD08199842C8BF5C1AC9B2C8BF24B26C
:101BA0004B1ED2B223440092DBB22846FFF766FFF9
:101BB000012195F82C0004F064FF002195F82B001A
:101BC000370AF6B204F05DFFA4B23CB13846FFF725
:101BD0006BFE3046FFF768FE013CF5E795F82B00F9
:101BE000012103B0BDE8F04004F04BBF03B0F0BDED
:101BF0002DE9F7430546B0F90C001E468842BDF9B1
:101C00002840BDF82C7044DDB5F90E30934240DD1C
:101C100001EB060E8645C8BF461A02EB0400C8BF9A
:101C200036B29842C8BF9C1AD2B2C8BF24B2C9B259
:101C3000501E4B1E2044C0B233440090DBB22846F5
:101C4000FFF71CFF012195F82C0004F01AFF00217A
:101C500095F82B004FEA17285FFA87F904F011FF77
:101C6000002C0EDD3746002F08DD4046FFF71CFE36
:101C7000013F4846FFF718FE3FB2F4E7013C24B2AB
:101C8000EEE795F82B00012103B0BDE8F04304F026
:101C9000F8BE03B0BDE8F08373B5002904461E46C4
:101CA0002ADBB0F90C308B4226DD002A24DBB0F9A8
:101CB0000E30934220DDD2B2551CC9B24B1CEDB29E
:101CC000DBB20095FFF7DAFE94F82C00012104F056
:101CD000D8FE002194F82B0004F0D3FE300AFFF761
:101CE000E3FDF0B2FFF7E0FD94F82B00012102B014
:101CF000BDE8704004F0C5BE02B070BD38B50D46F9
:101D000004463621FFF7EEFD05F003010229617656
:101D100094F829301AD003291DD001290AD0022BAA
:101D20000CBFC021C8212046FFF7F9FD8023A38105
:101D3000A02309E0022B0CBFA021A8212046FFF719
:101D4000EEFDA023A3818023E38138BD022B0CBFCD
:101D500000210821E7E7022B0CBF60216821EDE795
:101D600002F032B802F030B810B50372012381716D
:101D7000C271037410BD10B504460021807904F0CF
:101D80006FFE0121A07904F07CFE0023E36010BD0A
:101D90002DE9F843044601F0A7FFE368834284BFBE
:101DA0000023E360237C3BB9E368C01AB0F5FA6F07
:101DB00002D20120BDE8F8830025257401F094FFCC
:101DC0000121E0602571A079E570A570657025702E
:101DD00004F057FEFA2003F015FA0121A07904F06F
:101DE0003FFE2946A07904F04CFE142003F00AFAC5
:101DF00003F0BCFA0121A07904F043FE282001F091
:101E000063FF2946A07904F02BFE2E4601274FF0F0
:101E10000008A07904F04EFEB8425FFA88F908D1B4
:101E2000012008F1010801F04FFFB8F1FF0FF0D1D8
:101E3000C146A07904F03EFEB9F1FF0FC7B214D03D
:101E4000032D0ED9EB070CD4F208A35C01365B001E
:101E5000DBB2A354217AF6B249453CBF43F00103FB
:101E6000A3540135EDB2552DD1D103F081FA272EBF
:101E70000AD92278637821791344A2781344E2784E
:101E80001344DBB2994294D00020BDE8F8830000EF
:101E900070B50446FFF77CFF18B3E3790B2B04D031
:101EA0001FD3153B012B04D91BE0A07805F074FF6C
:101EB00070BDA57805F07F0005F072FF4FF08741F7
:101EC00005F0C2FF0646E07805F06AFF314605F0EE
:101ED000B3FE054906F06CF82B0603D500F100406F
:101EE00070BD024870BD00BF000020410000C07FEF
:101EF000FFF7CEBF38B50446FFF74AFFE0B1E379FC
:101F00000B2B15D018D3153B012B15D8207805F0D5
:101F100043FF4FF0874105F097FF0546607805F0D5
:101F20003FFF294605F088FE044906F041F838BD18
:101F3000207805F031FF38BD014838BD0000204150
:101F40000000C07FFFF7D6BF01F03EBF2DE9F74F7D
:101F500017469B4681468A46BDF8308001F0C4FE94
:101F600000253B4606462C46202FA8BF2023019380
:101F7000BD422CD204F0F6FC494602F0E3FC04F02A
:101F8000F1FC036851469B68984704F0EBFC02F0B3
:101F9000E1FC04F0E7FC494602F0D4FC04F0E2FC6A
:101FA0007A1B202AA8BF2022D2B2494602F0C7FCE1
:101FB00004F0D8FC03681B699847F8B1B8F1000F2A
:101FC00012D001F091FE801B40450DD316E0B8F110
:101FD000000F17D001F088FE801B404512D3BC4291
:101FE000B8BF4FF0FF340DE004F0BCFC03685B6940
:101FF00098470BF80400013464B2D9E7019B1D44F3
:10200000EDB2B5E7204603B0BDE8F08F07B5009309
:1020100013460122FFF79AFF03B05DF804FBF8B501
:1020200007461E4614460D4604F09CFC394602F055
:1020300089FC04F097FC036829469B689847013C9B
:10204000751E3444A54207D004F08CFC036815F8D3
:10205000011F9B689847F5E704F084FC02F07AFCC6
:10206000B0FA80F04009F8BD07B502AB03F8012DC6
:102070000122FFF7D4FF03B05DF804FBF7B5164665
:102080001F460D4B0DF107021B8804460D46FFF756
:10209000BDFF01229DF80730B24017B11A43D2B2FA
:1020A00001E023EA0202294620468DF80720FFF7C7
:1020B000DBFF03B0F0BD00BF7C000020F7B51F467A
:1020C000114B16461B880DF1070204460D46FFF71B
:1020D0009DFFB8B101239DF82010F21BBB400132D7
:1020E000013B934001FA02F29DF80710D2B221EAB7
:1020F0000301134041EA0302204629468DF80720D8
:10210000FFF7B2FF03B0F0BD7C000020F8B5074632
:1021100014460D461E4604F025FC394602F012FC1A
:1021200004F020FC036829469B689847650000245A
:10213000AC4211DA04F016FC36F814100368090AF0
:102140009B68984704F00EFC036816F814109B680F
:1021500002349847E4B2EBE704F004FC02F0FAFB27
:10216000B0FA80F04009F8BD07B502AB23F8022DA4
:102170000122FFF7CBFF03B05DF804FB01F024BEA2
:1021800068230370704707B502230078042200918A
:102190001B21FFF793FF03B05DF804FB07B5022393
:1021A0000078042200911C21FFF788FF03B05DF83E
:1021B00004FB000013B50446074B00781B8802227D
:1021C00000933B21631CFFF7C1FE6078A37843EACC
:1021D000002000B202B010BD7C00002013B5044600
:1021E000074B00781B88022200933D21631CFFF7F8
:1021F000ADFE6078A37843EA002000B202B010BDC3
:102200007C00002013B50446074B00781B8802228F
:1022100000933F21631CFFF799FE6078A37843EA9F
:10222000002000B202B010BD7C0000200B46062248
:102230006B210078FFF722BF07B503230078022245
:1022400000916B21FFF73AFF03B05DF804FB10B576
:1022500004460121FFF7F0FF20460021FFF793FF1E
:1022600020460021FFF79AFF2046BDE810400021DC
:10227000FFF7DCBF8AB200780621FFF775BF8AB28C
:1022800000780821FFF770BF8AB200780A21FFF7B3
:102290006BBF8AB200781321FFF766BF8AB200785D
:1022A0001521FFF761BF8AB200781721FFF75CBFE5
:1022B00001F08ABD01F088BD014B01221A70704700
:1022C00040020020011D006802F016BA10B5044655
:1022D0000175006802F0DEF9207D012104F0C0FBE9
:1022E000207D0121BDE8104004F0CBBB006802F066
:1022F000DCB9FF21006802F0A5BA000037B5084B31
:1023000000250093074C134600680A4629462570AD
:1023100002F09EFA2378002BFCD0002003B030BDE1
:10232000B9220A0840020020006802F08BBA0000BF
:1023300037B5074B00250093064C134600682A4624
:10234000257002F085FA2378002BFCD003B030BD55
:10235000B9220A084002002001F036BD01F034BD68
:1023600001F032BD70B50E46154601F0B5FC0C4CBF
:102370002368C01A0B4B984208D901F0B5FC0A4BF0
:10238000186001F091FD01F0A7FC206001F0ACFCA9
:1023900080B2801BA842D4BF0020012070BD00BFC6
:1023A00044020020A08601005807002038B5057AB5
:1023B00004464DB94068FFF785FF63682946187DDC
:1023C00004F05FFB0123237238BD10B5037A044685
:1023D0006BB143680121187D04F053FBFF21606855
:1023E000FFF7A2FF6068FFF781FF0023237210BD93
:1023F000F8B504460D46164601F076FC87B26068D3
:10240000FFF777FFFF28607209D14FF47A723946DF
:102410002046FFF7A7FF0028F1D055230BE0FE2848
:1024200001D0502307E0324629466068FFF766FF77
:10243000607230B1602320462370FFF7C6FF002092
:10244000F8BD6068FFF755FF6068FFF752FF012095
:10245000F8BD70B504460E4601F046FC85B2324622
:1024600029462046FFF77EFF30B96068FFF741FF3D
:10247000FF28F4D1012070BD002070BDF7B5037AAC
:1024800004460D4601920BB9FFF790FF25B14FF4BA
:1024900096712046FFF7DDFF45F040016068FFF7C9
:1024A00043FF0DF107060DF1030716F801196068E7
:1024B000FFF73AFFBE42F8D1002D0CBF95218721CE
:1024C0006068FFF731FF6068FFF713FF0B25606856
:1024D000FFF70FFF0306607203D5013D15F0FF05FE
:1024E000F5D103B0F0BD70B504460D461646372150
:1024F0000022FFF7C3FF324629462046BDE8704060
:10250000FFF7BCBF2DE9F04100250572057085720B
:102510004160044690461E4601F0E6FB41460746F0
:102520006068FFF7D3FE63684F4A4FF001081D72E1
:10253000DA605D7483F810802046FFF737FF636828
:102540004146187D04F09DFA0A25FF216068013D8F
:10255000FFF7EAFE15F0FF05F7D163682946187DFD
:1025600004F08FFA0A25002211462046FFF786FF65
:102570000128804612D0013D15F0FF0501D120232E
:1025800057E0FD216068FFF7CFFE4FF402786068E6
:10259000FFF7AFFEB8F10108F9D1E4E74FF4D572C7
:1025A00008212046FFF76AFF052802D184F80A8037
:1025B0000FE004256068FFF79CFE013D15F0FF0564
:1025C0006072F7D1AA2802D10223A37201E0252369
:1025D0002FE0A37ABFB2022B0CBF4FF0804500253D
:1025E0002A4629212046FFF77EFF024648B14FF4D4
:1025F000FA6239462046FFF7B5FE0028F0D04323A3
:1026000017E0A37A022B0ED02046FFF7DEFE6368A8
:10261000B0683479317B727BD8601C7219745A743B
:102620000120BDE8F0813A212046FFF727FF38B1AD
:10263000372320462370FFF7C8FE0020BDE8F08155
:102640006068FFF756FE00F0C000C02804BF0323F7
:10265000A3726068FFF74DFE6068FFF74AFE60688E
:10266000FFF747FED0E700BF90D0030038B5837A6C
:102670001546032B18BF49020A4611210446FFF7ED
:10268000FDFE10B1302323700BE029464FF4007299
:102690002046FFF7ADFE054618B12046FFF795FE30
:1026A00003E02046FFF791FE0025284638BD10B50F
:1026B000837A0A46032B18BF4A0212210446FFF709
:1026C000DDFE30B1312320462370FFF77EFE00206F
:1026D00010BD012010BD10B500220C210446FFF7EB
:1026E000CDFE30B1282320462370FFF76EFE002078
:1026F00010BD2046FFF769FE012010BDF8B5054664
:1027000016461F46FFF7D3FF98B10024A3B29F429D
:1027100006EB442108D94FF400722846FFF768FE03
:1027200001340028F2D104E02846BDE8F840FFF764
:10273000D2BF0020F8BD38B5044615464068FFF703
:10274000F3FD4FF4007229466068FFF7F1FDFF21A9
:102750006068FFF7E9FDFF216068FFF7E5FD60684D
:10276000FFF7C7FD607200F01F00052806D0572351
:1027700020462370FFF729FE002038BD012038BD18
:1027800070B5837A1546032B18BF49020A461821F3
:102790000446FFF773FE064608B132231DE02A46C1
:1027A000FE212046FFF7C7FFC0B14FF4FA61204673
:1027B000FFF74FFE054608B95A230EE032460D21B9
:1027C0002046FFF75BFE38B96068FFF792FD18B945
:1027D0002046FFF7FAFD05E0292323702046FFF786
:1027E000F4FD0025284670BD38B50D464FF4FA615A
:1027F0000446FFF72EFE10B95B23237005E02A463E
:10280000FC212046FFF797FF18B92046FFF7DDFDB2
:10281000002038BD10B5837A0A46032B18BF4A0240
:1028200019210446FFF72AFE30B1332320462370D6
:10283000FFF7CBFD002010BD012010BD38B54FF4CF
:10284000FA610446FFF705FE054620B1FD216068E8
:10285000FFF76AFD01E0562323702046FFF7B5FD20
:10286000284638BDF8B5054616461F46FFF7D2FF85
:1028700070B10024BC4206EB4421284604D0FFF787
:10288000B3FF28B10134F5E7BDE8F840FFF7D6BF44
:102890002846FFF79AFD0020F8BD01F095BA01F037
:1028A00093BA01F091BA10B50446243000F0A4FBAD
:1028B00028B104F50C70BDE8104000F09DBB10BDC0
:1028C000837800F1100243F004038370016980688B
:1028D00000F048BC2DE9F0410378044603F02003E2
:1028E00003F0FF050BB100262EE04269184B9A4217
:1028F000F9D8FFF7E5FF06460028F4D02169A06863
:1029000000F0C5FB0746A06805223946243000F0D8
:102910009AFB80460028E6D029464FF4007205F065
:10292000BAFF0125A3681A79AA4209D94246E919D2
:102930001868FFF725FF0028D5D00135EDB2F1E783
:10294000636903EB422363613046BDE8F08100BF59
:10295000FFFD1F0010B5044680680A462430A169B7
:1029600000F071FB20B1A38803F00F0300EB4310CC
:1029700010BD70B5047805460E4684B92422214660
:1029800005F089FFAE60F379102B03D0202B06D120
:10299000402300E0202301202B70A87070BD002090
:1029A00070BD2DE9F74F03780446894615464BB1B3
:1029B0008278D10706D50CE05A46216900F06DFBFC
:1029C00000283DDA63784FF0FF3043F00203637074
:1029D00097E01A0703D5E36962699B1A07E09A0634
:1029E00008D5A3681A896369C3EB42139BB29D4261
:1029F00028BF1D462E464FF0000804F1100B002E94
:102A000035D02278636912F0200FC3F3080AA0685A
:102A10004FEA532102D0036A19441DE090F8058063
:102A200001EA0808BAF1000F10D1B8F1000F0DD17A
:102A3000002BC1D153064CBF036A236A236105E012
:102A400004D1237813F0700F11D1BBE72169A0687E
:102A500000F01DFB08EB0001A068BAF1000F35D1B2
:102A6000B6F5007F32D3C36A994202D12EE0A81B8B
:102A700047E0B6F5806F1BD322784FEA562A9706B7
:102A800006D40279C8EB0202D2B2924528BF924620
:102A900099424FEA4A2707D2A06853464A4600683F
:102AA000FFF72CFE60B98DE75344994221D3F3E739
:102AB0004A460068FFF7DAFD002883D04FF400771C
:102AC0006369B9443B446361F61B98E700222430F4
:102AD00000F0B9FA00283FF475AFCAF50077B742A5
:102AE00028BF374600EB0A013A46484605F0ADFEDE
:102AF000E6E72430019100F07FFA01990028CBD15C
:102B000060E703B0BDE8F08F2DE9F34780460E463D
:102B100091461F464FF0FF3A00256C1C4C4520DAC9
:102B200001220DF107014046FFF73BFF0FFA80FA43
:102B3000BAF1010F15D19DF807100D2902D12C46CD
:102B40002546EAE724B2715517B90A29F8D104E0FD
:102B5000384605F0D1FE0028F2D000233355204638
:102B600007E0BAF1000F02DA4FF0FF3001E02C4627
:102B7000F3E702B0BDE8F08737B543690446C3F315
:102B8000431505B169B901220DF107012046FFF790
:102B900008FF40B2012801D0002008E063691F331C
:102BA00000E02033A0686361303000EB451003B0D3
:102BB00030BD2DE9F0410E46017804460769002931
:102BC00039D04569B5423AD00EB9066131E00B07FC
:102BD00003D5C3699E422ED807E0880605D5A368B1
:102BE0001B89B6EB431F26D823E0D4F808E06A1E01
:102BF0009EF8063003F10900731EC240C3409A429A
:102C000000D84DB94A064CBFDEF82020226A226166
:102C10001D4604F110080AE09B1AF9E742462169B3
:102C2000A06800F03AFA002805F1FF3503DD002D19
:102C3000F4D1666103E027610020BDE8F081012046
:102C4000BDE8F081F8B50F46044615460021242260
:102C50001E4605F020FEB868A580A0603B6A05F01E
:102C60000F0200F130015201E3601144CB7A1D07DD
:102C70004CD4831893F83B3003F017032370C97AC0
:102C800011F0180F04BF43F0080323709DF81830AB
:102C9000E37006F00303012B09D0022B05D0002BB3
:102CA00034D1710532D4012302E0032300E0022372
:102CB000A370A1788B0703D5237813F0110F25D1CA
:102CC0004BB216F4005F06F0080114BF6FF07F07E7
:102CD000002719433943A170C36A0244A361B2F8C3
:102CE0004410B2F84A30750543EA014104D581B178
:102CF00000F073FA68B909E02162D36CE3617304F0
:102D00000CD5E1692046FFF754FF38B90020207048
:102D1000F8BDA37843F00403A370F0E70120F8BDE9
:102D200038B5037804460BB9012038BD83785A07BB
:102D300023D50121FFF70EFE054628B96378002050
:102D400043F00103637038BD0378E52BF6D0237898
:102D50001B0744BFE369C361238C4383638C838275
:102D6000094B1B682BB100F11601183098472B8BCB
:102D70006B82A37823F00403A370A068FFF793FD90
:102D80000028DBD0D0E700BF4C02002010B504467D
:102D9000FFF7C6FF0023237010BDF0B51F4693B0A8
:102DA00000238DF824308DF82530037806460C4634
:102DB00001920BB100203DE00B7813F0700FF9D0B9
:102DC00013782F2B12D1019B1A782F2A02D10133AD
:102DD0000193F8E7A1681AB93046FFF7CAFD29E068
:102DE00009A8FFF7C6FD0028E4D009AC01AA03A991
:102DF000019800F0CDFA0028DCD0019B1B789BB134
:102E0000002303AA2146304600F066FC0028D1D0FA
:102E1000354609AC0FCD0FC40FCD0FC42B6830461B
:102E20002360FFF7B3FFE0E73B4603AA21463046A5
:102E300000F052FC13B0F0BD00B500238BB08DF84C
:102E400004308DF805300A460123014601A8FFF73A
:102E5000A4FF10B101A800F087FB0BB05DF804FBE4
:102E60002DE9F0470378894619070446904608D5AE
:102E700083789A0705D51B070BD5E169FFF799FE03
:102E800038B963784FF0FF3043F001036370BDE859
:102E9000F0876369DB439845F3D846464FF0000A54
:102EA0006369002E7FD0A068C3F30807427912EA55
:102EB00053251CD1DFB9216971B104F1100200F072
:102EC000ECF80028DDDB40F08D802046FFF7F8FCB1
:102ED000002840F08780D4E7236A3BB92046FFF7FB
:102EE000EFFC0028CDD02369236200E02361216933
:102EF000A06800F0CCF8291817B9B6F5007F21D2E8
:102F0000C7F50075B54228BF354637B96369E26930
:102F1000934234BF0122052200E00122A068243040
:102F200000F091F80028ACD038442A4649462F4496
:102F300005F08BFCB7F5007F2FD1A068243000F09E
:102F40005BF816E0B6F5806FA06814D30279730AB7
:102F5000521BD2B2934228BF1346C26A5D0291420D
:102F600002D31A44914237D3A7684A463868FFF71C
:102F700079FC90B985E7C36A4A46994202BF4FF08F
:102F8000FF3380F824A0C362A3681868FFF7F8FB3A
:102F900000283FF476AF4FF400756369A9442B44D1
:102FA0006361761B7CE7E269934201D9E36102E049
:102FB0000F4B1B681BB1A37843F00403A37094F973
:102FC0000230002B02DB4046BDE8F0872046FFF7C9
:102FD000A7FE0028F7D154E74FF0FF3280F824A075
:102FE000C262C1E72169A06800F051F8014684E798
:102FF0004C02002000F0E8BE70B503780446DA0702
:103000001ED5436800F10C06816832461868FFF748
:10301000B7FB054608B9002513E023789B0704D4C5
:10302000237823F0010323700BE06368A06819691B
:10303000324601441868FFF7A3FB0028F0D1EAE705
:103040000125284670BD70B5836804468B420E4644
:10305000154614D0FFF7D0FF08B9002070BD6B07EC
:1030600003D500232370A66009E0636804F10C0215
:1030700031461868FFF7FAFA0028F2D1EDE720464A
:10308000237805F003051D4300F80C5B70BD8379C0
:1030900002394069994008447047012970B50546D6
:1030A0000C46164602D84FF0FF3070BDC3699942F6
:1030B000F9D8C379202B10D18169022201EBD411F8
:1030C00000F50C70FFF7BFFF0028ECD004F07F0480
:1030D00050F8243023F070430FE0102BE3D18369C4
:1030E000C1F307210222194400F50C70FFF7ABFF72
:1030F0000028D8D0E4B230F81430EA6993429ABF7D
:1031000033600120002070BD012938B50C461546FA
:1031100001D8002038BDC3699942FAD8C379202B61
:103120000ED18169032201EBD41100F50C70FFF779
:103130008AFF0028EDD004F07F0440F824500FE00F
:10314000102BE6D18369C1F307210322194400F54E
:103150000C70FFF778FF0028DBD0E4B220F81450A1
:10316000012038BD2DE9F341C46805468C420E4666
:10317000904607D20C460027EB6901349C4203D9E4
:10318000CFB9EC680127F7E7A64214D001AA21467F
:103190002846FFF782FF00280DDBEDD0019B002BB6
:1031A000EAD107B1EC606FF0704221462846FFF784
:1031B000ABFF074608B900270BE016B9C8F8004076
:1031C00007E0224631462846FFF79EFF0028F5D14A
:1031D000F1E7384602B0BDE8F08173B505460C460C
:1031E00001AA21462846FFF758FF061E01DA0020F3
:1031F0000FE0002221462846FFF786FF0028F6D080
:10320000EB689C429CBF04F1FF34EC60019C002EF3
:10321000E6D102B070BD70B5044601230022C36040
:103220004FF0FF33C2710D46A06280F82420C362C4
:10323000C4F8340280F83022C0F83832A1B1042931
:103240005DD811462430FFF7FEFE002857D000EB72
:10325000051393F8AE315B0651D11B3500EB051514
:10326000D5F80650002D4AD00022294604F124004A
:10327000FFF7E9FE002842D0B0F80B30B3F5007F2D
:103280003DD1037C022B3AD1C389002B37D0417B3F
:1032900009264B1E63710023A371217101238B4208
:1032A00007D0013E2BD0A2795B000132DBB2A271C4
:1032B000F5E7C28A02B9426A2261C6892E44A66134
:1032C000B0F8113006EB420123812162B0F81120E1
:1032D000520102F2FF1201EB62226261B0F8133078
:1032E00003B9036AAD1A2B44A57923FA05F56B1CC3
:1032F000E36140F6F4739D4203D80C23E371002090
:1033000070BD4FF6F4739D4289BFC36A10232362D8
:103310002023E371012070BD00F056BD00F054BDC4
:1033200070B505460C46084649B106F03FF82B68D3
:10333000024621462846BDE87040DB68184770BD4C
:1033400000F042BD411E00F10A020020430843EA9A
:10335000C01011F8013F18448A4200F0FF00F5D177
:10336000704738B5CB6804460D4623B9BDE83840F0
:103370008968FFF7FEBA2422002105F08CFA102399
:1033800001202370A070AB68A360EB68236238BD96
:103390002DE9F0470378441C202B01D12046F9E7A2
:1033A0000546704F88602C1A2E4615F8013B0BB36A
:1033B0002F2B01D1031917E05C2B02D10020BDE8AF
:1033C000F087A3F12204E4B21D2C03D827FA04F4F9
:1033D000E407F3D403F0BF043C2CEFD0203B5E2B7A
:1033E000E1D9EBE72F2D05D11E4613F8015B202D07
:1033F000F8D1F9E7166003199842C0EB030809D029
:1034000013F8012D2E2AF7D0202AF5D0B8F1FF0F9E
:10341000D4DC01E04FF00008C1F8048001F10C0396
:1034200001F11702202403F8014F9342FBD1034618
:103430001A1A13F8014B2E2CFAD0202CF8D0B2FA1D
:1034400082F408F1FF366409731C07D100274FF09E
:10345000070E3D46BA464FF0080909E0835D2E2B62
:10346000F4D0013EF0E7835C202B04D1002401322C
:103470004245F8DB4BE02E2B02D1B242F6D103E0FD
:10348000222B17D07C2B15D0A3F12A0CBCF1050FF1
:1034900001D82D2B0ED1A3F13A0CBCF1050F09D99F
:1034A000A3F15B0CBCF1020F04D9A3F1210CBCF118
:1034B0005D0F02D9B2420ED149E0B24247D0754504
:1034C00021D8A3F1610CBCF1190F08D8203BDBB265
:1034D00049EA07070AE0754515D800245F23A3F1E0
:1034E000410CBCF1190F98BF49EA0A0A05F1010C19
:1034F0005FFA8CFC0D44BCF1060F6B7301D881F8A8
:103500000CC06546B3E7BEF10A0F17D100244B7B10
:10351000202B3FF453AF3CB11AEA070F18BF022724
:103520000F700120BDE8F0870B7B01200870194463
:103530007E234B7331238B73BDE8F087B242E5DC09
:1035400032464FF00A0E08254FF010098EE7BEF103
:103550000A0FDBD032464FF00A0E08254FF0100953
:1035600085E700BF01010031F0B500238BB08DF875
:1035700004308DF8053003780446190708D58378A0
:103580009A0705D5016A29B1A068FFF726FE08B998
:10359000002049E001212046FFF7DCF9054600281C
:1035A000F6D0FFF7CFFEE5262E70002307462370E6
:1035B000A068FFF778F90028EAD0E378002B33D031
:1035C000214601A8FFF7CDFE0028E1D00125E378D0
:1035D000AB42DDD3A18801A8491B4901FFF7E9FAF5
:1035E0000028D5D0002101A8FFF7C6FA0028CFD0C7
:1035F000C37A0F2BCCD1027802F01F039D42C7D1B2
:10360000437BBB42C4D10670A16891F8243043F0DB
:10361000010381F82430530603D5A068FFF743F96E
:1036200002E00135EDB2D2E70BB0F0BD2DE9F84371
:1036300006460D4691F80C9002247E2701F10D08F4
:103640006968AA6863189BB21144914206D012F8C7
:10365000010B03EB431343409BB2F6E7B9F1030FB1
:1036600028BF4FF0030909F10402D2B203F00F01A1
:10367000A818013A0929D2B294BF303137319145A7
:1036800041734FEA1313F1D305EB09035F73002174
:103690003046FFF78EFA01213046FFF76DFA0146FA
:1036A00028B97078B0FA80F04009BDE8F883037853
:1036B0004BB1C37A1B07EED40B22404605F0B6F897
:1036C0000028E8D102E00120BDE8F8830134A4B26B
:1036D000642CB5D1BDE8F8832DE9F04F9B460B78FB
:1036E00089B013F0700F05900E46914601D100206D
:1036F000A0E1059B1B78002BF9D153680293137846
:103700009B0700F08D81029B0D270C33B3FBF7F76D
:103710000137FFB24FF0000800213046FFF749FAA9
:1037200044464346454609F10D02CDF80C80CDF8DC
:10373000108006927269012130460793C2F34F1A36
:10374000FFF71AFA079B20B97378002B00F09080DE
:10375000CDE70278E52A00D042B9002C08BFD04658
:10376000BC423CBF0134E4B222B981E0BC4238BF64
:10377000002403E0E52A01D10025DBE72E2AFBD057
:10378000C17A0F2952D13DB95106D3D5437B02F0FE
:103790001F0503932B4607E0013BDBB29A42EBD1B6
:1037A000427B03999142E7D15A1E4FF00D0C0CFB5E
:1037B00002FC029A6245DFD94FF0000EBEF1040F01
:1037C0005FFA8EF204D800EB4E02B2F801200CE052
:1037D0000A2A95BF0EF1FF320EF1010200EB420200
:1037E00000EB420294BFD28892880299614503D1CE
:1037F000002A18BF00259DE7FF2ABDD8D2B2A2F14A
:1038000041011929D9F8081098BF203211F80C107D
:103810000CF1010AA1F1410C98BFD2B2BCF1190F11
:103820009CBF2031C9B29142A6D1FBE00907A3D4C5
:103830004DB1012B7FF45BAFFFF784FD039B834207
:103840007FF455AF0FE00B220699079304F0EEFFCB
:10385000079B00287FF46EAF99F80020D20702D5AD
:103860000122049266E71BF4006F00F0D1803EE76E
:103870001BF4007F3FF43BAF0BF00303013B012B34
:103880003FF635AF002C08BFD046BC4202D3049BA4
:10389000CBB91FE000213046FFF76EF910B97378FD
:1038A0005BB124E70134E4B2EFE7B3681B79012B85
:1038B000EDD81034E4B2A742E9D93046FFF70AF850
:1038C0000028F2D113E749463046FFF7AFFE002843
:1038D0003FF40DAF4FEA48113046FFF76AF9002870
:1038E0003FF405AF7D1EEDB22C464FF0000A4FF0BD
:1038F0000F0841E000213046FFF73EF90746002857
:103900003FF4F5AEB268AC4292F8243043F00103C4
:1039100082F8243014BF224644F04002027080F83E
:103920000B8080F80CA009F10D000392FFF70AFD4F
:10393000039A787387F81AA087F81BA002F01F0279
:103940000D23013AD9F808E05A4300230299914225
:1039500015D91EF80210042B5FFA83FC03F1010055
:1039600013D807EB4303A3F801100D2802F101025D
:103970000346EBD1013CE4B2002CBBD10EE014BFF6
:103980004FF0FF31002189B2E5E7BCF10A0F94BF87
:1039900007EB430307EB40039980E6E77369214691
:1039A0003046C3F34F1AFFF7E7F8074600283FF405
:1039B0009EAE2022214604F06EFF4B4653F80D2F99
:1039C0003A605A687A601A893A819B7ABB7299F890
:1039D000003003F018033B73184B1B682BB107F141
:1039E0000E0107F11000984706E021233B742823BD
:1039F0007B740823BC73FB733B8A7B823B83FB890C
:103A0000FB82B26892F8243043F0010382F824303C
:103A100000955B46524631460598FFF713F909E0D9
:103A2000012777E60EF1010EBEF10D0F3FF482AED5
:103A3000D446C3E609B0BDE8F08F00BF4C020020B9
:103A400000F0C2B900F0C0B900F0BEB900F0BCB9D6
:103A500000F0BAB908B5024B1B689B6C019308BD16
:103A6000C001060808B5024B1B681B68019308BD1E
:103A7000D801060808B5024B1B685B68019308BDB6
:103A8000D801060808B5024B1B689B68019308BD66
:103A9000D801060808B5024B1B681B69019308BDD5
:103AA000D801060808B5024B1B685B69019308BD85
:103AB000D801060808B5024B1B689B69019308BD35
:103AC000D801060808B5024B1B68DB69019308BDE5
:103AD000D801060808B5024B1B681B6A019308BD94
:103AE000D801060808B5024B1B685B6A019308BD44
:103AF000D801060808B5024B1B68DB6C019308BDB2
:103B0000AC01060808B5024B1B685B6D019308BD4C
:103B1000AC01060808B5024B1B689B6D019308BDFC
:103B2000AC01060808B5024B1B68DB6D019308BDAC
:103B3000AC01060808B5024B1B681B6E019308BD5B
:103B4000AC01060808B5024B1B685B6E019308BD0B
:103B5000AC01060808B5024B1B689B6E019308BDBB
:103B6000AC01060808B5024B1B68DB6E019308BD6B
:103B7000AC01060808B5024B1B681B6F019308BD1A
:103B8000AC01060808B5024B1B685B6F019308BDCA
:103B9000AC01060808B5034B1B68D3F880300193CD
:103BA00008BD0000AC01060808B5024B1B689B6904
:103BB000019308BDC401060808B5024B1B681B6AC7
:103BC000019308BDC401060808B5024B1B685B6A77
:103BD000019308BDC401060808B5024B1B689B6A27
:103BE000019308BDC401060808B5024B1B68DB6AD7
:103BF000019308BDC401060808B5024B1B681B6B86
:103C0000019308BDC401060808B5024B1B685B6B35
:103C1000019308BDC401060808B5024B1B689B6BE5
:103C2000019308BDC401060808B5024B1B681B6C54
:103C3000019308BDC401060808B5024B1B68DB6C84
:103C4000019308BDC401060808B5024B1B68DB6878
:103C5000019308BDD001060808B5024B1B681B6B19
:103C6000019308BDD001060808B5024B1B689B6B89
:103C7000019308BDD001060808B5024B1B681B6CF8
:103C8000019308BDD001060808B5024B1B685B6CA8
:103C9000019308BDD001060808B5024B1B68DB6C18
:103CA000019308BDD001060808B5024B1B685B6D87
:103CB000019308BDD001060808B5024B1B685B687C
:103CC000019308BD9C01060808B5024B1B68DB6820
:103CD000019308BD9C01060808B5024B1B681B69CF
:103CE000019308BD9C01060808B5024B1B685B697F
:103CF000019308BD9C01060808B5024B1B68DB69EF
:103D0000019308BD9C01060808B5024B1B689B6D1A
:103D1000019308BD9C01060808B5024B1B681B688F
:103D2000019308BDB401060808B5024B1B689B68E7
:103D3000019308BDB401060808B5024B1B68DB6897
:103D4000019308BDB401060808B5024B1B681B6946
:103D5000019308BDB401060808B5024B1B685B69F6
:103D6000019308BDB401060808B5024B1B68DB6966
:103D7000019308BDB401060808B5024B1B681B6A15
:103D8000019308BDB401060808B5024B1B685B6AC5
:103D9000019308BDB401060808B5024B1B689B6A75
:103DA000019308BDB401060808B5024B1B689B6B64
:103DB000019308BDB401060808B5024B1B68DB6B14
:103DC000019308BDB401060808B5024B1B681B68C7
:103DD000019308BDB001060808B5024B1B685B687B
:103DE000019308BDB001060808B5024B1B689B682B
:103DF000019308BDB001060808B5024B1B68DB68DB
:103E0000019308BDB001060808B5024B1B681B6989
:103E1000019308BDB001060808B5024B1B685B6939
:103E2000019308BDB001060808B5024B1B681B6A68
:103E3000019308BDB001060808B5024B1B685B6A18
:103E4000019308BDB001060808B5024B1B681B6B47
:103E5000019308BDB001060808B5024B1B685B6BF7
:103E6000019308BDA801020808B5024B1B68DB6E70
:103E7000019308BDA801020808B5024B1B681B6F1F
:103E8000019308BDA801020808B5024B1B681B6816
:103E9000019308BDCC01060808B5024B1B685B689E
:103EA000019308BDCC01060808B5024B1B689B684E
:103EB000019308BDCC01060808B5024B1B685B697D
:103EC000019308BDCC01060808B5024B1B681B6AAC
:103ED000019308BDCC01060808B5024B1B681B6B9B
:103EE000019308BDCC01060808B5024B1B68DB6BCB
:103EF000019308BDCC01060808B5024B1B681B6C7A
:103F0000019308BDCC01060808B5024B1B685B682D
:103F1000019308BDC801060808B5024B1B689B68E1
:103F2000019308BDC801060808B5024B1B68DB6891
:103F3000019308BDC801060808B5024B1B681B6940
:103F4000019308BDC801060808B5024B1B685B69F0
:103F5000019308BDC801060808B5024B1B689B69A0
:103F6000019308BDC801060808B5024B1B68DB6950
:103F7000019308BDC801060808B5024B1B681B6AFF
:103F8000019308BDC801060808B5024B1B681B6BEE
:103F9000019308BDC801060808B5024B1B685B6B9E
:103FA000019308BDC801060808B5024B1B681B68D1
:103FB000019308BDA401060808B5024B1B685B68A5
:103FC000019308BDA401060808B5024B1B685B6994
:103FD000019308BDA401060808B5024B1B68DB6C01
:103FE000019308BDA401060808B5024B1B685B6D70
:103FF000019308BDA401060808B5024B1B689B6D20
:10400000019308BDA401060808B5034B1B68D3F84B
:104010009030019308BD0000A401060808B5034BC9
:104020001B68D3F89C30019308BD0000A40106086A
:1040300008B5024B1B681B68019308BDA001060868
:1040400008B5024B1B685B68019308BDA001060818
:1040500008B5024B1B689B68019308BDA0010608C8
:1040600008B5024B1B68DB68019308BDA001060878
:1040700008B5024B1B681B69019308BDA001060827
:1040800008B5024B1B689B69019308BDA001060897
:1040900008B5024B1B68DB69019308BDA001060847
:1040A00008B5024B1B681B6A019308BDA0010608F6
:1040B00008B5024B1B685B6A019308BDA0010608A6
:1040C00008B5024B1B68DB6A019308BDA001060816
:1040D00008B5024B1B681B6B019308BDA0010608C5
:1040E00000F11002012312F8101C1046012904D11E
:1040F00052F8041C03EB410304E0022904BF52F808
:10410000041C5B18013B02F11002ECD170470EB4A5
:104110002DE9F04187B000AF07F1340454F8046B87
:10412000054623463246102107F108007C60FFF760
:10413000BFFF0F2816D900F1080323F00703E84654
:10414000ADEB030D3246411C234668467C60FFF709
:10415000AFFF021E04DD2B6869469B68284698471E
:10416000C54607E030B12B6802469B6807F108019D
:10417000284698471C37BD46BDE8F04103B070475C
:1041800010B5044603689B689847A368013BA36089
:104190002BB923682046BDE81040DB68184710BDE6
:1041A00013B5026802AB03F8011D94681946012299
:1041B000A04702B010BD8368FBB11A78032A1AD851
:1041C000DFE802F00417021D0520704702685B68F3
:1041D0005268D05C2D2814D0A0F13003092B10D9DF
:1041E000742810D066280ED0A0F16E0358425841B2
:1041F000704706207047002070471846704704201B
:104200007047032070470220704710B50446FFF73F
:10421000D2FF02280DD016D3042814D82268A36830
:1042200050685B680A2200211844BDE8104005F080
:104230009DBF2268A36852685B68D05CA0F17403DC
:104240005842584110BD002010BD10B543690446C6
:104250005BB18068013BE0601030A0602061636169
:104260002BB1FFF73DFFA06001E0184610BD012013
:1042700010BD10B504467D21FFF792FF0123237185
:10428000204610BD08B50379012B02D0022B02D0C5
:1042900008BD2C2100E03A21FFF782FF08BD10B5D0
:1042A0000446FFF7EFFF20467B21FFF779FF00234D
:1042B0002371204610BD000038B504460D46FFF7B7
:1042C000E1FF23682046DB682A460349984701231B
:1042D0002371204638BD00BF9DE60A0838B5044664
:1042E0000D46FFF7CFFF23682046DB682A460349C7
:1042F000984701232371204638BD00BFD5DE0A0848
:10430000F8B50D46174622210446FFF749FF2A4615
:1043100029462F44BA4238D0164616F8015B222DA2
:1043200003D05C2D01D01F2D2DD82368521A9B6815
:10433000204698475C212046FFF732FF0C2D19D00C
:1043400007D8092D0FD00A2D12D0082D14D16221C3
:104350000AE0222D05D05C2D03D00D2D0CD1722149
:1043600002E0294600E074212046FFF719FF09E02A
:104370006E21F9E76621F7E723682A46DB680949D9
:104380002046984731463246C4E7914204D023681C
:10439000521A9D682046A84722212046FFF700FFB9
:1043A000F8BD00BFE0DE0A0870B504460D461646AB
:1043B000FFF768FF204632462946FFF7A1FF022398
:1043C0002371204670BD70B504460D461646FFF7B2
:1043D00059FF204632462946FFF792FF01232371F9
:1043E000204670BD10B50446006828B14368013B03
:1043F00043600BB9FFF7C4FE204610BD38B50C680A
:10440000036805469C420CD014B1636801336360B5
:10441000286828B14368013B43600BB9FFF7B0FE41
:104420002C60284638BD000010B504460023036008
:1044300043601048E360A060D1B10B78032B06D035
:10444000B3B9136858684B68C35C6E2B08D0136807
:1044500058684B680344A3608B6849685B1AE36043
:104460001146204651F8043B40F8043BFFF7C6FFD5
:10447000204610BD04E10A08002310B5044603607D
:1044800043608360C3600361436171B10B78012BAA
:104490000BD101F110038360CB681146436151F8E1
:1044A000043B40F8043BFFF7A9FF204610BD002362
:1044B00010B5044603604360816031B1114651F884
:1044C000043B40F8043BFFF799FF204610BD002352
:1044D0001A464068FFF718BD002202214068FFF726
:1044E00023BD002211464068FFF716BD0022114689
:1044F0004068FFF721BD00231A4619464068FFF7C0
:1045000023BD00231A4619464068FFF725BD002247
:1045100081F001014068FFF727BD00224068FFF7E6
:1045200033BD002211464068FFF736BD0022114618
:104530004068FFF721BD000070B516468EB00446F6
:1045400008A800F00BFB1122002103A804F0A3F936
:10455000304604F02BFF00250A4B009581B25B68C2
:1045600003AA3046FFF776FA20B12946204600F02C
:1045700015FB03E003A9204600F0FEFA20460EB02A
:1045800070BD00BF58020020024B034A1A6000228F
:104590005A60704750020020F0DE0A0800221146DF
:1045A0004068FFF7C9BCF0B5164689B011220F4626
:1045B0000446002103A804F06EF9304604F0F6FE2C
:1045C0000025009581B27B6803AA3046FFF742FAC6
:1045D00020B12946204600F0E1FA03E003A9204675
:1045E00000F0CAFA204609B0F0BD0022114640682A
:1045F000FFF7C2BC002211464068FFF7CDBC002285
:104600004068FFF7C1BC002281F001014068FFF75C
:10461000ABBC00231A4619464068FFF79DBC002337
:104620001A4619464068FFF78FBC002211464068C1
:10463000FFF772BC002202214068FFF775BC00231F
:104640001A464068FFF760BC024B04225A60024AD7
:104650001A6070475802002024DF0A08704710B51E
:104660000446102102F05EFA204610BD70B50446E3
:104670000E46074B0025036040F80C5FFFF7ECFA8D
:1046800030462671FFF770FBA560204670BD00BF65
:1046900058DF0A084FF6FF710079FFF73DBB00793C
:1046A000FFF742BB0079FFF747BBC068FFF7E4BAEA
:1046B000054A0023995C814202D00133082BF9D1CD
:1046C000581CC0B2704700BF60DF0A08400830B510
:1046D000186000241868E5B2884206D90134082C15
:1046E00002D040081860F5E70725024B5B5D1370A8
:1046F00030BD00BF60DF0A082DE9F04380468FB06F
:10470000C0680F46FFF7B0FA98F804401422002161
:1047100009A804F0C0F80B232046002209A9ADF82F
:104720002430FFF731FB9DF82D404CB19DF82C5003
:104730002DB90C9E9DF834909DF8354003E000247F
:10474000A146264601253B790DB1002B40D19D4263
:104750000BD1BA68B24208D18DF820908DF8214073
:10476000BDF82010BA89914232D023BB8DF80F30AA
:104770000DF10F0204ABB9680A98FFF7A7FF3B7968
:1047800005B113BBAB4209D000213B7B01917C7B7F
:104790009DF80F2098F80400009413E0BB68B34222
:1047A000F2D38DF820908DF82140BDF82020BB89F0
:1047B0009A42E9D109E000231A4698F804000193CF
:1047C00000930121FFF7F8FA02E0049BB342DBD12A
:1047D00000200FB0BDE8F08370B5044602FB01F580
:1047E00088B006791422002103A804F054F80B23A2
:1047F00003A930460022ADF80C30FFF7C5FA02AB32
:104800000DF1070229460498FFF760FF20799DF813
:104810000710FFF799FA029808B070BD38B5044642
:10482000A56808464DB1FFF743FF012225FA00F1C4
:104830002046BDE83840FFF7CFBF2079BDE83840BB
:10484000FFF782BA08B50079FFF786FAC0B208BD53
:1048500030B587B00A9D044600790095FFF79CFAB1
:104860003DB902A92079FFF79FFA9DF81430DB07C4
:10487000F7D407B030BD0079FFF77EBA10B5836872
:1048800004460BB902F083F9C3689847A3681BB1CB
:1048900003222146204698472046BDE810401021BB
:1048A00002F040B97047F8B5064615460C468F1819
:1048B000BC4206D0336814F8011B9B683046984709
:1048C000F6E72846F8BD0022007CFFF733B9002147
:1048D000007CFFF737B90021007CFFF73BB90021CE
:1048E000007CFFF73FB90021007CFFF743B910B50A
:1048F0000446142102F016F9204610BD10B50446F6
:1049000008464FF47A73A360044B00212074616061
:104910002360FFF73FF9204610BD00BF70DF0A0893
:1049200000231A461946007CFFF7E4B813B50024AB
:10493000007C0094FFF7E6F8C0B202B010BD01237E
:10494000FFF7F4BF0022007CFFF7E4B80022007CF0
:10495000FFF7E8B80121FFF7F9BF0021007CFFF75E
:1049600011B941747047704708B50021007CFFF70A
:10497000A1F830EA200028BF4FF0FF3008BD08B58D
:104980000121007CFFF796F830EA200028BF4FF0A5
:10499000FF3008BD08B5007CFFF784F820EAE0701E
:1049A00008BD08B5007CFFF775F820EAE07008BD87
:1049B000007CFFF78FB810B50446142102F0B2F85E
:1049C000204610BD38B50446007C0D46FFF76AF856
:1049D000002801DC607C28B12946207CFFF772F8B2
:1049E00020EAE07038BD000010B504460023636083
:1049F0004FF47A73A360054B0846236001232174AA
:104A000063741146FFF72EF8204610BD98DF0A08A0
:104A10000022007CFFF72EB8007CFFF733B8007C43
:104A2000FFF760B8FFF7FBBF10B504461422002162
:104A300003F031FF054B20466360054BE36040F215
:104A4000011323818123238210BD00BFE5020020D2
:104A50006402002030B50E4D87B001A8FFF7E4FFD7
:104A6000296811F0010410D12846FBF727FB60B13B
:104A700001AA21460748FFF7B7FF2846FBF723FBAB
:104A8000054A0649034802F03FF8024807B030BD26
:104A900060020020E80300207C01002067490A082A
:104AA00010B504461422002103F0F5FE054B204604
:104AB0006360054BE36040F201132381812323826D
:104AC00010BD00BF980400200004002010B50E4C5B
:104AD00086B001A8FFF7E4FF2368DB0710D4204667
:104AE000FBF7ECFA60B101AA01210848FFF77CFF4F
:104AF0002046FBF7E8FA064A0649044802F004F8A3
:104B0000024806B010BD00BFFC0300208404002052
:104B10007C01002067490A08704710B50446182137
:104B200002F000F8204610BDF8B50F4600F1080667
:104B3000051D002416F8011D0A22384601F057FD14
:104B4000AE42044407D0002CF4D02E21384601F0A8
:104B50000BFD0444EEE72046F8BD000010B5044606
:104B6000044B112240F8043B002103F094FE204640
:104B700010BD00BFC8DF0A080346074A10B543F856
:104B8000042B01F1100251F8044B914243F8044BFD
:104B9000F9D10A781A7010BDC8DF0A08024A4160CC
:104BA0000260042202757047C8DF0A0810B59DF83C
:104BB000084044EA032343EA024242EA0161042333
:104BC0004160037510BD000037B5044D05609DF8C8
:104BD00018500095FFF7EAFF03B030BDC8DF0A08A0
:104BE00070470020704710B50446102101F09AFF6D
:104BF000204610BD08B508B1FFF7F5FF08BD10B598
:104C00008368044613B1032201469847204610BD2D
:104C1000002202604FF69C72828010B5B1F9044008
:104C200084808A8002680C6804600A6010BD10B538
:104C300004460068FFF704FA204610BD38B5C46882
:104C4000F4B12378022B03D104F10C00FFF7EFFF3E
:104C5000656835B12846FFF7D2FF1021284601F0DC
:104C600061FFA56835B12846FFF7C9FF1021284626
:104C700001F058FF2046BDE83840142101F052BF32
:104C800038BD1FB50446684601F007FEA3680BB99E
:104C900001F07DFFE3686946204698470446684670
:104CA00001F0B4FD204604B010BDF0B507460E4635
:104CB000154685B0102422460021684603F0EBFD1E
:104CC000002269461046ADF8004002970396019510
:104CD000FFF7E2F805B0F0BD08460021FFF70CB978
:104CE00013B5044691E8050000234B600B6020607B
:104CF000626001A801930093FFF774FB204602B0A5
:104D000010BD0B68036013B15A6801325A607047D6
:104D1000F7B50C4606460F4654F8043B02AD45F87D
:104D2000083D214601A8FFF7ECFF29463046FFF772
:104D3000D7FF01A8FFF756FB2046FFF753FB384685
:104D4000082101F0EFFE304603B0F0BD13B50B466D
:104D5000044603C88DE8030093E8030084E80300D9
:104D60009DE8030083E8030002B010BD38B50023BE
:104D70000446036010200D46FBF791F928B101238A
:104D800043608360024BC56003602060204638BDED
:104D9000DCDF0A08826810B50AB901F0F8FEC368C2
:104DA000BDE81040184708B5006800F11001FFF792
:104DB000F1FF08BD826810B50AB901F0E8FEC368CA
:104DC000BDE81040184708B5006800F11001FFF772
:104DD000F1FF08BD38B5002383608B6804460D469B
:104DE0002BB102229847EB68E360AB68A3602046D2
:104DF00038BD0000F0B589B004686846FFF708FFC9
:104E00004FF0020200238DF80830D4E84F3F002B0A
:104E100003D1C4E8412F0029F7D102D08DF8083022
:104E200063E014F10C0503D069462846FFF7F0FE55
:104E3000BFF35F8F01236370BFF35F8F04F108033B
:104E4000002053E8006F43E80002002AF9D1BFF3C5
:104E50005F8F002E49D0FFF7BFF820B129463046BA
:104E6000FFF798FF3AE0314602A8FFF7B3FFE0688A
:104E7000B4F9105008B103F069FD06901020ADF8A8
:104E80001C50FBF70CF90546E8B100278760182095
:104E9000FBF705F9044688B10146876002A8FFF7D1
:104EA00055FF049BA268A360059B0492E26806A9D3
:104EB000E36004F110000592FFF7AAFE0D4B2C6091
:104EC000EB600D4BAB6006A8FFF7B1FE02A8FFF741
:104ED00096FE002229460948FFF786F83046FFF77C
:104EE0008EFE1021304601F01DFE6846FFF79FFE42
:104EF00009B0F0BDA74D0A081D500A087D480A08F0
:104F00002DE9F04F8BB006460F46904699469DF826
:104F100050A0FEF7D1FF07AD834630BB4FF62E738E
:104F2000059005A92846ADF81830FFF771FE14204A
:104F3000FBF7B5F8044658B1022303700123437010
:104F4000C0F804B0C0F808B029460C30FFF760FE86
:104F50003046214640F8044BFFF708FF2846FFF78C
:104F600066FE05A8FFF763FE52E000240C23142020
:104F70006C60AC600793FBF792F8014618B10470BF
:104F800044704460846004A80391FFF7EFFE224B55
:104F900008200893FBF783F8044628B1039B04A973
:104FA00040F8043BFFF7ADFE00955FFA8AF34A46EE
:104FB000414638460994FEF787FF20B9039B5B788A
:104FC00003F0FF0283B1039B04A906A80593FFF732
:104FD00098FE05A93046FFF783FE06A8FFF702FA00
:104FE00004A8FFF7FFF913E04FF69C7305A903A887
:104FF0000592ADF81830FFF7FDFE05A8FFF717FE84
:1050000005A80999FFF784FE06A8FFF7EBF9DAE790
:1050100030460BB0BDE8F08F8D510A08022AF8B572
:10502000044606D0032A17D0012A22D10B68036058
:105030001FE018200E68FBF732F8054650B13146E4
:10504000FFF7C8FE3069B6F9147008B103F07EFCB2
:105050002861AF8225600CE0046854B104F11000AF
:10506000FFF7E5FD2046FFF7CAFD1821204601F0B5
:1050700059FD0020F8BD38B5002383608B680446D5
:105080000D462BB102229847EB68E360AB68A36042
:10509000204638BD022A70B5044606D0032A11D036
:1050A000012A18D10B68036015E014200E68FAF786
:1050B000F6FF054620B13146FFF7DDFF337C2B7448
:1050C000256008E0046834B12046FFF798FD1421FC
:1050D000204601F027FD002070BD0000F0B50C4611
:1050E000BFF35F8F87B0002350E8006F40E80032C5
:1050F000002AF9D1BFF35F8F002E3FD01846FEF78C
:105100006BFF074620B121463046FFF753FE2EE0E5
:10511000314601A8FFF7AFFF237810208DF8143037
:10512000FAF7BDFF0546D0B187601420FAF7B7FF44
:10513000044678B18760014601A8FFF707FE039B8C
:10514000A268A360049B0392E268E3609DF81430B8
:10515000049223740A4B2C60EB600A4BAB6001A8ED
:10516000FFF74DFD002229460748FEF73DFF304678
:10517000FFF745FD1021304601F0D4FC07B0F0BD2B
:10518000C74D0A0895500A087D480A0830B50446FC
:1051900085B00D4668461146FFF7BAFD7CB124B2D2
:1051A00028460DB103F0D2FB029002A96846ADF883
:1051B0000C40FFF71FFE02A8FFF739FD1DE04FF07E
:1051C000010200988DF80840D0E84F3FA34203D178
:1051D000C0E8412F0029F7D102D08DF808300CE04B
:1051E00010F10C014FF0010318BF0373BFF35F8F81
:1051F000043000F8033CFFF771FF01A8FFF7F2F855
:1052000005B030BD0021FEF7DFBE000008B5144B2D
:1052100033B1FFF71FFC03681B699847002816DCB1
:10522000104B33B101F0B0FA03681B6998470028AE
:1052300010DC0D4B0BB1AFF300800C4B7BB1FFF7D3
:1052400045FC03681B699847002806DC08BDAFF3DE
:105250000080E5E7AFF30080EBE7AFF3008008BD27
:10526000000000000000000000000000000000003E
:1052700008B5FFF7CBFFFEF737FD014B186008BDFF
:10528000580700200248034A0349121A03F0DDBA06
:10529000004002400440024048EB0A0807B50023E2
:1052A00000931A466FF07701FEF7B8FE03B05DF881
:1052B00004FB000007B543880A2B08D0502B09D106
:1052C000094B1B683BB103B05DF804EB1847FFF7CF
:1052D000E5FF06E0002300931A466FF07701FEF722
:1052E0009DFE03B05DF804FB9C05002038B5104C12
:1052F000104D2368AB42104B0CBF012200221A70E4
:1053000002D0FFF7BFFF2560FEF7D6FC044603F08E
:10531000CBFA0A4B13B12046AFF3008000210748B7
:10532000FEF7E2FDBDE8384000210548FEF76CBEFF
:10533000004002401E1C279AA0050020000000002B
:10534000B5520A0810B50446FFF759FC204610BDB7
:10535000034800238360034A034901F0D5BB00BF23
:10536000A40500207C01002045530A08FEF764BD17
:10537000FEF75ABD08B50020FEF7AEFD28B1FEF7D6
:105380009BFD80F00100C0B208BD012008BD0000F7
:1053900010B50949044602F0F5FE60B907492046F8
:1053A00002F00EFF38B90649204602F04DFD02F02A
:1053B00027FF044B186010BD000040C10000604191
:1053C00000006145C005002037B50E4B04461B6840
:1053D00002A819440C4B1B68194440F8041D03F043
:1053E0001BF903F0C3F8054603F0E0FF002328444F
:1053F00000F8013C2946204601F04FFA204603B050
:1054000030BD00BFC0050020BC0500202DE9F047DD
:10541000A4B014AC07468946204611461D4603F049
:105420008DFA204603F0C2FF804625B9244903A81F
:1054300003F084FA13E03C2195FBF1F2002AB8BF97
:10544000524292FBF1F301FB13224FF4616300928D
:1054500095FBF3F31B4A102103A8FEF719FE25461E
:105460002E1B08F1FF3AB2451BD92B78252B16D1FC
:105470006B787A2B13D103A803F098FF8046304451
:10548000C6EB0A02A91C204403F0DFF9424603A937
:10549000284603F0DAF9204603F088FF80460135FC
:1054A000DEE74B462246322107A803F0CBFA07A9D4
:1054B000384601F0F2F9384624B0BDE8F08700BF65
:1054C00055E90A08F0DF0A08F7B5054601921C46BF
:1054D00013B9124B1C682CB1114B2046196803F00C
:1054E00023FA20B901992846FFF76EFF13E00D4F0C
:1054F000019A3B680C4E1A44336802A8134440F8E2
:10550000043D03F089F83A6833680146134428469D
:105510002246FFF77BFF284603B0F0BDB805002008
:1055200080000020C0050020BC05002010B5002030
:10553000FEF7EAFB044668B9FEF736FD01280BD1F9
:105540002046FEF759FD38B9FFF714FF30B9FEF7D2
:10555000ABFCF9E7012010BD002010BDFFF70AFFEA
:105560000020FEF7D1FB003018BF012010BD08B5A8
:10557000FFF7DCFFBDE80840FEF7BEBB024B1A6830
:10558000024B1A60704700BF80000020B805002061
:1055900080680368DB681847704719B10B680846D4
:1055A0005B681847704719B10B6808465B68184775
:1055B000704770477047704738B504460D4600681D
:1055C0002E2103F0A7F92368C31A2B6023B10378B7
:1055D00003B1013023682060184638BD10B5044679
:1055E0000C2101F09FFA204610BD10B5044604219D
:1055F00001F098FA204610BD10B50446042101F0D0
:1056000091FA204610BD38B50C460546FFF722FA40
:10561000844202D1FFF71EFA05E0FFF757FA8442F1
:1056200005D1FFF753FABDE83840FFF7F5B901F0AF
:10563000ABF8844205D101F0A7F8BDE8384001F08D
:105640009CB821462846FFF7AEFF38BD08B503F0E9
:105650006BF9B0FA80F0400908BD38B50546084638
:105660000C4603F0A3FE214602462846BDE838401A
:10567000FEF7A9BE0068FEF70FBB70B504460846EA
:105680000D4603F093FE2368024629462046BDE8F6
:105690007040DB68184713B5026802AB03F8011DC0
:1056A000D46819460122A04702B010BD2DE9F04F81
:1056B00007688B463C46456891461422554385B0A1
:1056C0000193AB10184D02925D430123002D03930B
:1056D00023DD029B6E1003FB06F004EB0008B8F814
:1056E00004A04A46D14528BF52465946205803F0E7
:1056F00065FE039B48B9D14503D1019A1370354625
:10570000E4E78CBF0120002000E0C00F0028F6D0A5
:10571000AE1B08F11404013EF1E7E41B0248A4109B
:10572000604305B0BDE8F08FCDCCCCCCF0B50369BB
:1057300085B00191067E13B309B300231D4604AF63
:1057400000F10C0447F8043D394601A8FFF734FF87
:105750000146A0B104AB03F8055D039A2046FFF7AC
:10576000A5FF9DF80B3053B12368142404FB0034CB
:10577000B4F906300834002BA8BFDEB2E4E73046A7
:1057800005B0F0BD10B5094C2368DB070BD42046EB
:10579000FAF794FC38B12046FAF795FC044A05491B
:1057A000054801F0B1F9044810BD00BFC405002050
:1057B0007C010020B5550A088800002010B5094C6E
:1057C0002368DB070BD42046FAF778FC38B1204673
:1057D000FAF779FC044A0549054801F095F90448AF
:1057E00010BD00BFF40500207C010020B3550A085D
:1057F0008400002038B500250446056045608560BA
:1058000005614561856140F8245FFEF73DFAFFF7C9
:10581000B9FFE061FFF7D2FF25732062204638BD53
:1058200010B50A4C2368DB070ED42046FAF746FC75
:1058300050B10748FFF7DEFF2046FAF744FC054A5F
:105840000549034801F060F9014810BDC805002072
:10585000CC0500207C010020A95C0A080023024A34
:1058600002490348FEF708BB8D5B0A081D5B0A0866
:10587000A55A0A0800231A4619461846FEF7FCBA2C
:1058800073B505460E6951F8043B02AC44F8083D77
:1058900001A8FFF736FA224631462846FEF707FEF2
:1058A00001A8FEF79FFD284602B070BD73B50546FE
:1058B0008E6851F8043B02AC44F8083D01A8FFF79C
:1058C00020FA224631462846FEF7D6FD01A8FEF70B
:1058D00089FD284602B070BD73B50546CE6851F803
:1058E000043B02AC44F8083D01A8FFF70AFA22463F
:1058F00031462846FEF798FD01A8FEF773FD2846BD
:1059000002B070BD30B58BB00D46014604A8FFF75C
:10591000CDFF04A8FEF799FCE8B104A96846FFF79B
:10592000DBFF0F490298FFF791FE044610B12C1CD3
:1059300018BF012401A8FEF755FD002CE9D004A9E9
:105940006846FFF79DFF6846FEF75FFC286001A8E8
:10595000FEF748FDDDE705A8FEF744FD0BB030BDBE
:1059600060E00A0837B50C461A492046154602F091
:10597000DBFF40B9FFF76EF84FF41651FFF748F818
:10598000FFF768F823E01449204602F0CDFF40B944
:10599000FFF79CF84FF41651FFF73AF8FFF796F827
:1059A00015E00E49204602F0BFFF78B902A94FF476
:1059B000165341F8043D2846FFF7A4FF00F0E4FE2B
:1059C000019900F0D7FE00F0DFFE00E0002003B0F8
:1059D00030BD00BF65E00A086CE00A086FE00A0805
:1059E00070B5054604684368142606FB0346A642C4
:1059F00005D004F10800FFF7F3FF1434F7E7286837
:105A0000FEF71EFB284670BD70B505460468436866
:105A100004EB0316A64204D0204600F0F7FE103433
:105A2000F8E72868FEF70CFB284670BD10B5044661
:105A30000C30FFF7D5FF2046FFF7E6FF204610BDEC
:105A400010B50446034B40F8043BFFF7EFFF204638
:105A500010BD00BF28B70A0810B50446FFF7F0FFD5
:105A60002046242101F05EF8204610BD10B5044602
:105A7000024B0360FFF7E4FF204610BD38E00A0840
:105A800010B50446FFF7F2FF2046242101F04AF842
:105A9000204610BD10B5044603681868FEF704F9E7
:105AA000204610BD2DE9F04F9B461B4B85B05B682F
:105AB0008246C3F308030E46904653BBFFF7B0FE81
:105AC000044624300390FFF7D5FD237BF3B901236F
:105AD000237325686368F6B205EB83094D4513D03F
