:02000004080AE8
:1000000000000A08909B0A0800000600060005018F
:0800100004027E05000000005F
:04001800806C0A08E6
:1000200009480A4908B5884205D0094A824202D0E7
:10003000121A05F021FC0748074A0021121A05F0A0
:1000400041FC064808BD00BF00000020649A0A0871
:1000500004010020040100209008002090080020E6
:1000600070B502F0C7FD074B074C1E46E41AA40802
:100070000025A54204D056F8253098470135F8E709
:1000800070BD00BFFC990A085C9A0A0800F09CB891
:1000900008B500F0FBF8BDE8084002F06DBD01F0C6
:1000A000E5BF01F0EBBF000008B5034A00210C20BA
:1000B00001F018FFFEE700BF951D0A080078B0FAAE
:1000C00080F0400970470123037070477047006A51
:1000D0000368DB68184770B5436804468569866A1B
:1000E00053B10436AE4204D955F8040BFFF7D9FFDB
:1000F000F8E76068FFF7D5FF204670BD10B50446ED
:10010000094B036002F0F4FF214603F0F0F902F01E
:1001100023FC02F007FC2046044B40F8043B03F0AC
:10012000EDF8204610BD00BFB46C0A089C6C0A08AC
:1001300010B50446FFF7E2FF2046242104F0F0F951
:10014000204610BD10B50446024B0360FFF7D6FFF2
:10015000204610BDCC6C0A0810B50446FFF7F2FF2C
:100160002046242104F0DCF9204610BD08B502F039
:10017000F3FB4FF4165102F0D1FB02F0EDFB0368E4
:100180001B69984730B102F0E7FB03685B69984749
:100190000028F2D102F0E0FB03681B69984750B9D0
:1001A00040F2DC5002F0B2FCF4E702F0D5FB036849
:1001B0005B69984730B102F0CFFB03681B69984731
:1001C0000028F2D108BD000010B50D4CFFF7CEFF9E
:1001D00014210C4802F08FFC204600F05BFC0A481A
:1001E00000F0BCF9094800F079FA094800F07AF902
:1001F000084800F00BFA2046BDE8104000F090BC23
:10020000380100209C0600202C0100205001002015
:100210004C0100208001002010B5094CE368C01A91
:10022000636898420AD301F0BDFDE060054800F024
:100230007FF9BDE81040044800F014BA10BD00BFBB
:10024000300000204C0100208001002010B50C4C33
:10025000A368C01A2368984210D301F0A3FDA060E0
:10026000084C094800F053FBE36801330A2BE360B4
:1002700004D1054800F058FA0023E36010BD00BF28
:1002800030000020000000205001002010B501F0D7
:1002900089FD0446FFF7C0FF2046084CFFF7D6FF54
:1002A000204600F011FC204600F08CFC204600F0B7
:1002B0003DFCBDE81040024800F07AB9380100204A
:1002C0002C01002070B5054604684368142606FB1F
:1002D0000346A64204D0204603F0CEFF1434F8E7CC
:1002E000286801F0CBFE284670BD8842F8B5064666
:1002F0000C46154616D9904215D2A2F114056C1A77
:10030000A1F114070444AF421CD02CB12946204669
:1003100003F0A2FF2B7C2374284603F0ADFF143DAD
:10032000143CF0E70ED0AC420CD02EB12146304642
:1003300003F092FF237C3374204603F09DFF1434B6
:100340001436F0E7F8BD2DE9F04100230360436067
:1003500083604E6804469E420F4624DD4FF0140829
:1003600008FB06F001F082FE0546E0B194E80600C5
:1003700008FB0212FFF7B9FF206801F07FFE25603D
:10038000A6603E687B6808FB0368464509D02DB12E
:100390003146284603F0D9FF337C2B7414361435CC
:1003A000F3E77B6863602046BDE8F081F0B5044662
:1003B0008DB00023174600930193029302F0CCFA0C
:1003C00025460646694603A8FFF7BDFF03A906A810
:1003D000FFF7B9FF164B06A945F8043B09A8FFF73C
:1003E000B2FF09AA3946284603F0E3F909A8FFF746
:1003F00069FF06A8FFF766FF0E4B2662236003A87D
:10040000FFF760FF0C4B236002F0A6FA4FF4165181
:1004100002F084FA02F06CFE214603F05EF96846B1
:10042000FFF750FF2046054B23600DB0F0BD00BF25
:100430009C6C0A08B0940A08B46C0A08CC6C0A08D0
:1004400070B5174C01F006FD164D01224FF4165100
:100450002046FFF7ABFF144E2046144C2A461449A1
:1004600004F050F832462146124800F0FDFA2146C9
:10047000114800F02FF82146104800F0B5F8214649
:100480000F4C104800F08DF83146204600F069FA14
:100490002A462046BDE870400B4904F033B800BF3F
:1004A00008010020040100200000002018000020A6
:1004B00045010A08380100204C010020800100207D
:1004C000500100202C010020D7000A0800210E2036
:1004D00003F0C4BF10B504460160FFF7F7FF2046E4
:1004E00010BD000038B5104C322002F00FFB02F0B6
:1004F00033FA214603F0BFFC02F02EFA0B4903F059
:10050000BAFC02F029FA05460E2003F0E4FF0A22A5
:100510000146284603F007FD02F01EFA2146BDE819
:10052000384003F0A8BC00BFDC6C0A08F66C0A086F
:1005300010B504680E2003F0CEFF04F09FFA04A368
:10054000D3E9002304F000FBC4E9000110BD00BFA3
:100550007B14AE47E17AB43F01F07CBC10B50A4C85
:10056000322002F0D3FA02F0F7F9214603F083FCBF
:1005700002F0F2F9054903F07EFC02F0EDF92146A4
:10058000BDE8104003F077BCDC6C0A081B6D0A085C
:1005900010B504460121062003F060FF002323600C
:1005A00010BD10B504468160FFF7F2FF204610BD74
:1005B00010B581680446D1E900010022084B04F01F
:1005C00053FD10B10123237100E02071217963797B
:1005D0008B4202D0062003F052FF2379637110BDD5
:1005E0000000384001F036BC38B504460D4602F034
:1005F000B3F9044903F03FFC2560034800F0DBFF3A
:10060000204638BD2A6D0A088401002037B5124CF7
:10061000322002F07BFA02F09FF9214603F02BFC16
:1006200002F09AF90D4903F026FC02F095F905460F
:100630000B4801F07DF804F033FA022302460093E0
:1006400028460B4603F028FD02F086F9214603B048
:10065000BDE8304003F00FBCDC6C0A08456D0A08A9
:100660008401002010B50468024801F08BF8A060F6
:1006700010BD00BF8401002010B501F0EBFBBDE808
:10068000104006230B220221014800F08DBF00BF5D
:100690008401002010B5044603F062FE02F0C6F8A3
:1006A000206801F00EFA2068002101F039FA206874
:1006B000002101F03AFA2068002101F03BFA20689D
:1006C000002101F03CFA2068002101F03DFA206889
:1006D0000021BDE8104001F03CBA000038B50546E5
:1006E000322002F013FA02F037F90C4903F0C3FB91
:1006F00002F032F90446286801F00AFA084B094969
:10070000002808BF1946204603F0B5FB02F024F983
:10071000BDE83840014903F0AEBB00BFDC6C0A08FD
:100720008C6D0A086E6D0A08F8B54FF0FF33044669
:100730001E460127E268E169914220D02069616983
:10074000156817B9AB4206DB01E02B462E46AE42D8
:10075000A8BF2E461D460B1F9A4204D00432E26009
:1007600000272B46E6E7FFF79CFCA3691A1DA26150
:100770005B6803F5007223616261E360F0E7E26A9F
:100780009B1B1361F8BD2DE9F0470446C809451CC1
:100790000330082838BF0820606080000F46FFF74C
:1007A0007EFC66688046761B760800EB8609CA46A2
:1007B000206009EB8505554506D94FF40070FFF719
:1007C0006EFC4AF8040BF6E758F8262007F07F077E
:1007D00002F5007323612B1F636255F8043CC4F8D3
:1007E000149003F50071E36103EB8703E26021627B
:1007F000A260A361BDE8F0872DE9F047426A056871
:1008000043680F46511BA3EBA1010129044658D8A8
:100810004169561AB610013606F10108B3EB480FCC
:1008200017D9C8EB03035B0805EB8305A94202F166
:10083000040204D9521A930831D0284606E0521A0D
:1008400093084FEA86002AD0801A284405F01FF842
:1008500025E0002B14BF99464FF00109023399445B
:10086000B9F1804F01D303F06CFE4FEA8900FFF726
:1008700016FC626A61690432C8EB0905521A6D08F8
:100880009308824600EB850502D0284604F0FFFF5E
:100890002068FFF706FCC4F800A0C4F80490656166
:1008A0002B6806F18046E360013E03F50073236187
:1008B00005EB8603636255F82630E36103F50073A8
:1008C00023624FF40070656AFFF7E9FB6860A36973
:1008D0003A6803B11A60636A1A1D62625B6803F5C5
:1008E0000072E3612262A361BDE8F08738B5046A53
:1008F0008269043CA242034606D0096802B1116035
:100900009A6904329A6138BDFFF776FF38BD37B572
:100910000446C56A006801F087F828602068E56A27
:1009200001F096F868602068E56A01F0A5F8A86013
:10093000E36A02A99B68201D41F8043DFFF7D6FF3A
:1009400003B030BDF0B5054690E800500C4687680E
:10095000C6680FC985E80F0084E80050A760E6600C
:10096000F0BDF0B5054600248BB068460F46214621
:1009700000940194029403940494059406940794BB
:1009800008940994FFF7FFFE6C60AC60EC602C618A
:100990006C61AC61EC612C626C62AC622146281D1A
:1009A000FFF7F1FE009B8BB102A905F10C00FFF7E8
:1009B000C9FF06A905F11C00FFF7C4FF6B68009A88
:1009C00000936A60AB68019A0193AA60009B059C42
:1009D000099E53B10436A64204D954F8040BFFF71C
:1009E00060FBF8E70098FFF75CFBEF620F20FFF772
:1009F00056FB044608B100F0FDFF28462C60FFF7C7
:100A000049FE28460BB0F0BD01F024BA10B50446EB
:100A1000006800F04DFC2068032100F08FFD206885
:100A200001210368DB6A984720681F2103689B6ADD
:100A300098472068022100F030FB232211462068ED
:100A400000F028FB20684FF6E07100F02BFB2068D7
:100A5000012100F02DFB20680249BDE8104003F0A1
:100A6000F7B900BFA66D0A08F8B5044630200E4657
:100A70001546FFF714FB074620B10A230B220C2171
:100A800000F038FB204627606660A560FFF7BEFFD8
:100A90002046F8BD10B50A4C322002F037F801F0BC
:100AA0005BFF214603F0E7F901F056FF054903F02B
:100AB000E2F901F051FF2146BDE8104003F0DBB937
:100AC000DC6C0A08AF6D0A081FB5044601210068F6
:100AD00000F0E3FA20681E22282100F0DBFA002251
:100AE00020684FF6FF7100F0E0FA0121206800F065
:100AF000DFFA246802F0A3F9074B0246074968466B
:100B000002F04AF90099204603F0A2F9684603F082
:100B1000B3FB04B010BD00BFC36D0A08FC04002085
:100B20000068002103689B6A184700002DE9F8431C
:100B300004460121006800F0B0FA00224FF6FF7170
:100B4000206800F0B2FA0121206800F0B1FA3A26DC
:100B50000025012DA36805D0022D07D01A68DFF803
:100B6000588006E05A68DFF8548002E09A68DFF89F
:100B7000508004F10C070FFA86F90E49384601F04F
:100B80008DFA4A460821206800F084FA4146206820
:100B900003F05EF94A462021206800F07BFA013517
:100BA0003946206803F054F90A36032DB6B2D0D185
:100BB000BDE8F883D86D0A08CC6D0A08D06D0A0824
:100BC000D46D0A0813B504460121006800F065FAE7
:100BD00000224FF6FF71206800F067FA2D225F2196
:100BE000206800F057FA1149206803F031F941F20A
:100BF0008832A3681B69934209DC4FF6E07240F229
:100C0000DC518B42CCBF13464FF4FC6301E04FF440
:100C1000784320684E210268019328230093546A88
:100C200046233C22A04702B010BD00BFDC6D0A087D
:100C300001F010B92DE9F04F1E4685B0BDF93830EE
:100C400015469A1A002AB8BF52420092721A002A18
:100C5000B8BF524201920C46009A019981468A42DD
:100C6000BDF83CA005DD32461E46134622462C4602
:100C70001546B44205DD2A461D4613462246344633
:100C800016465A1B002AC4EB0608B8BF52421FFA88
:100C900088F803920FFA88F702229D42B4BF01231D
:100CA0004FF0FF3397FBF2F70293B4421FDC019A37
:100CB000009B48469342D9F80030C8BF2246D3F87B
:100CC00010B0C8BF29465346DCBF2A462146D84744
:100CD000039BFF1ABBB21FB2002F05DA029A08EB82
:100CE000030715442DB23FB2013424B2DDE705B04D
:100CF000BDE8F08F2DE9F347044691460D4698462E
:100D0000BDF82C600768BDF928A00096FF69B847B8
:100D100023680AF1FF3200964A44DF6929464346B8
:100D2000204612B2B847236800969F694A46534648
:100D300029462046B847236808F1FF310A9629441E
:100D40009D694A4653462046AC4609B202B0BDE80A
:100D5000F047604737B5013BBDF8185013440468AD
:100D60001BB20093019564690B46A04703B030BDE8
:100D700037B5BDF8185004688DE82400013B0B44DA
:100D800064691BB2A04703B030BD2DE9F3470546A7
:100D900017460C46BDF92880BDF82C9001EB030ADC
:100DA00054450BDA2B68CDF800909E6921464346E6
:100DB0003A4628460134B04724B2F1E702B0BDE814
:100DC000F08713B5B0F90E2004680191009200225B
:100DD000B0F90C30646A1146A04702B010BD7047EC
:100DE000F0B50A2985B004460D4607D1436A027E54
:100DF0005978438A01FB0233438249E00D2949D0E7
:100E0000067E0368B0F91220B0F910100296C68A67
:100E10000196868A00961E6B2B46B047E37E94F9B6
:100E20001DE0ED1A636ABEF1000F03EB850213F8B3
:100E30002560557815DDE08AA38A834211D0237E90
:100E40000190218A03FB05F006FB031100B227681D
:100E50000090B4F912207F6A0EFB03F309B220461A
:100E6000B847227E94F91D30208A91B2334403FBA7
:100E7000010394F828001BB2238258B1B4F90C0086
:100E800006FB1202934205DD638A01FB053565828C
:100E900000232382012005B0F0BD000081760329E4
:100EA00013D8DFE801F002060A0E0F4B03620F4B66
:100EB00010E00F4B03620F4B0CE00F4B03620F4B24
:100EC00008E00F4B03620F4B04E0042383760E4BC4
:100ED00003620E4B436201234377036A1A78C2769A
:100EE0005B780377704700BF988D0A081C8C0A084E
:100EF000247C0A08A0860A08C8760A08A87A0A0884
:100F000072800A0824850A08CE6E0A081C880A081E
:100F10004281C2814FF6FF7238B50023084D43600D
:100F20004376038243820123018181810560037638
:100F3000C282828280F828300421FFF7AFFF38BDDB
:100F4000FC6D0A082DE9F04F8BB09246BDF8502099
:100F500004460492BDF854200D460592C27E9DF8C9
:100F600058609A4205D8017F994202D39B1ADBB29E
:100F700000E00023B4F90C20AA427BDDB4F90E2076
:100F8000524577DD616A9A0011F82330079206FB1B
:100F90000353002B0A446DDD537806FB03A3002B9B
:100FA00068DD53880FFA86F802339BB20293002360
:100FB0000393B3B20693626A07999DF90C300A4411
:100FC0005278934256DA06999BB21FFA8AF203FBD3
:100FD0000121134409B21BB208914FF00009099393
:100FE000626A07984FFA89F1125C5FFA89F39142BD
:100FF0003CDA5A0706D1029B0298226A01339BB25F
:10100000175C02933B060DD5012E05D123682944B8
:10101000D3F810B0049B10E0069B049A01FB035127
:10102000236814E0049B059A93421AD0012E09D13B
:1010300023682944D3F810B01346099A09B2204610
:10104000D8470EE0069B059A01FB035123680192E5
:10105000CDF80080D3F824B0089A434609B2204660
:10106000D8477F00FFB209F10109B9E7039B0133BB
:101070000393A0E70BB0BDE8F08F70B4BDF80C404F
:10108000BDF810509DF8146004950596039470BC4B
:10109000FFF758BF018242827047002908BF012133
:1010A00001767047C182818270478182C282704717
:1010B00080F82810704700F0CDBE13B5B0F90E20AF
:1010C0000468019100920022B0F90C30646A114664
:1010D000A04702B010BD704710B50446302103F0A0
:1010E0001FFA204610BD00000146014801F056BB22
:1010F000A4060020F8B504461D460F46164680217A
:10110000A022FFF705FF064B84F82B702360012314
:1011100084F82C6084F82D5084F82A302046F8BDDD
:10112000386E0A0838B504460D4690F82C000021A8
:1011300003F0A5F9002194F82B0003F0A0F928464C
:10114000FFF7D2FF94F82B000121BDE8384003F0EF
:1011500096B9002914BF21212021FFF7E3BF38B53C
:1011600004460D4690F82C00012103F088F9002177
:1011700094F82B0003F083F92846FFF7B5FF94F8A5
:101180002B000121BDE8384003F079B92DE9F04783
:1011900080460F784C1C47B32646404616F8021B83
:1011A000FFF7C0FF6578B24625F07F0905F07F059F
:1011B0002C465FFA89F9013CE4B2FF2C05D01AF8FD
:1011C000011B4046FFF7CBFFF5E77419B9F1000F9B
:1011D00002D1013FFFB2DEE7705D0134FF2808BF96
:1011E0004FF4FA7001F092FCF3E7BDE8F0870000DD
:1011F00070B50446002580F82F5080F82E500E461A
:1012000090F82C00012103F029F9012194F82B001A
:1012100003F024F9254801F05BFA0821234801F086
:10122000A9FA0121214801F058FA29461F4801F086
:1012300057FA94F82A3053B11C4801F049FA0121B9
:101240001A4801F04AFA2946184801F049FA94F878
:101250002B00002103F013F994F82D00E8B10121CF
:1012600003F0FCF8012194F82D0003F008F94FF485
:10127000FA7001F04BFC002194F82D0003F0FFF808
:101280004FF4FA7001F042FC94F82D00012103F0B4
:10129000F6F84FF4FA7001F039FC2EB131462046D1
:1012A000BDE87040FFF772BF70BD00BFA40600200C
:1012B0000149FFF79DBF00BF6C6E0A082DE9F041A0
:1012C000044688461F4616462A219DF81850FFF707
:1012D00029FF20460021FFF742FF94F82E102046F8
:1012E0004144C9B2FFF73BFF20460021FFF737FF1B
:1012F00094F82E1020463944C9B2FFF730FF20463B
:101300002B21FFF70FFF20460021FFF728FF94F85D
:101310002F1020463144C9B2FFF721FF204600219B
:10132000FFF71DFF94F82F1020462944C9B2FFF79C
:1013300016FF2046BDE8F0412C21FFF7F3BEF7B5BC
:101340001C46B0F90C3005468B42BDF8207031DDEB
:10135000B0F90E0090422DDD13198342C8BF841AE4
:10136000D2B2C8BF24B2561E2644CBB2F6B219463A
:1013700000962846FFF7A2FF012195F82C0003F004
:101380007EF8002195F82B003E0AFFB203F077F8B3
:10139000A4B23CB13046FFF7A7FE3846FFF7A4FEE3
:1013A000013CF5E795F82B00012103B0BDE8F040C2
:1013B00003F065B803B0F0BDF7B51C46B0F90C30CA
:1013C00005468B42BDF8206030DDB0F90E0090423A
:1013D0002CDD08199842C8BF5C1AC9B2C8BF24B234
:1013E0004B1ED2B223440092DBB22846FFF766FFC1
:1013F000012195F82C0003F042F8002195F82B000C
:10140000370AF6B203F03BF8A4B23CB13846FFF716
:101410006BFE3046FFF768FE013CF5E795F82B00C0
:10142000012103B0BDE8F04003F029B803B0F0BDDE
:101430002DE9F7430546B0F90C001E468842BDF978
:101440002840BDF82C7044DDB5F90E30934240DDE4
:1014500001EB060E8645C8BF461A02EB0400C8BF62
:1014600036B29842C8BF9C1AD2B2C8BF24B2C9B221
:10147000501E4B1E2044C0B233440090DBB22846BD
:10148000FFF71CFF012195F82C0002F0F8FF002166
:1014900095F82B004FEA17285FFA87F902F0EFFF63
:1014A000002C0EDD3746002F08DD4046FFF71CFEFE
:1014B000013F4846FFF718FE3FB2F4E7013C24B273
:1014C000EEE795F82B00012103B0BDE8F04302F0F0
:1014D000D6BF03B0BDE8F08373B5002904461E46AD
:1014E0002ADBB0F90C308B4226DD002A24DBB0F970
:1014F0000E30934220DDD2B2551CC9B24B1CEDB266
:10150000DBB20095FFF7DAFE94F82C00012102F01F
:10151000B6FF002194F82B0002F0B1FF300AFFF76C
:10152000E3FDF0B2FFF7E0FD94F82B00012102B0DB
:10153000BDE8704002F0A3BF02B070BD38B50D46E3
:1015400004463621FFF7EEFD05F00301022961761E
:1015500094F829301AD003291DD001290AD0022B72
:101560000CBFC021C8212046FFF7F9FD8023A381CD
:10157000A02309E0022B0CBFA021A8212046FFF7E1
:10158000EEFDA023A3818023E38138BD022B0CBF95
:1015900000210821E7E7022B0CBF60216821EDE75D
:1015A00000F058BC00F056BC10B5037201238171E5
:1015B000C271037410BD10B504460021807902F099
:1015C0004DFF0121A07902F05AFF0023E36010BD16
:1015D0002DE9F843044600F0E5FBE368834284BF4D
:1015E0000023E360237C3BB9E368C01AB0F5FA6FCF
:1015F00002D20120BDE8F8830025257400F0D2FB5B
:101600000121E0602571A079E570A57065702570F5
:1016100002F035FFFA2001F079FA0121A07902F0F9
:101620001DFF2946A07902F02AFF142001F06EFA6E
:1016300001F020FB0121A07902F021FF282000F019
:10164000A9FB2946A07902F009FF2E4601274FF099
:101650000008A07902F02CFFB8425FFA88F908D19F
:10166000012008F1010800F095FBB8F1FF0FF0D15F
:10167000C146A07902F01CFFB9F1FF0FC7B214D028
:10168000032D0ED9EB070CD4F208A35C01365B00E6
:10169000DBB2A354217AF6B249453CBF43F00103C3
:1016A000A3540135EDB2552DD1D101F0E5FA272E25
:1016B0000AD92278637821791344A2781344E27816
:1016C0001344DBB2994294D00020BDE8F8830000B7
:1016D00070B50446FFF77CFF18B3E3790B2B04D0F9
:1016E0001FD3153B012B04D91BE0A07803F0DAFDD2
:1016F00070BDA57805F07F0003F0D8FD4FF087415D
:1017000003F028FE0646E07803F0D0FD314603F0F2
:1017100019FD054903F0D2FE2B0603D500F1004068
:1017200070BD024870BD00BF000020410000C07FB6
:10173000FFF7CEBF38B50446FFF74AFFE0B1E379C3
:101740000B2B15D018D3153B012B15D8207803F09F
:10175000A9FD4FF0874103F0FDFD0546607803F0D9
:10176000A5FD294603F0EEFC044903F0A7FE38BDB1
:10177000207803F097FD38BD014838BD00002041B6
:101780000000C07FFFF7D6BF00F064BB2DE9F74F24
:1017900017469B4681468A46BDF8308000F002FB22
:1017A00000253B4606462C46202FA8BF2023019348
:1017B000BD422CD202F0D4FD494601F049F802F0B6
:1017C000CFFD036851469B68984702F0C9FD01F0C0
:1017D00047F802F0C5FD494601F03AF802F0C0FDB5
:1017E0007A1B202AA8BF2022D2B2494601F02DF848
:1017F00002F0B6FD03681B699847F8B1B8F1000F15
:1018000012D000F0CFFA801B40450DD316E0B8F19E
:10181000000F17D000F0C6FA801B404512D3BC421F
:10182000B8BF4FF0FF340DE002F09AFD03685B692A
:1018300098470BF80400013464B2D9E7019B1D44BA
:10184000EDB2B5E7204603B0BDE8F08F07B50093D1
:1018500013460122FFF79AFF03B05DF804FB37B58A
:1018600014461D460DF10702BDF81C30FFF7EEFFD0
:1018700060B10123621BAB400132013B9DF80710B0
:1018800093400B4043FA02F2069B1A7003B030BD3E
:10189000F8B507461E4614460D4602F061FD39466E
:1018A00000F0D6FF02F05CFD036829469B6898476C
:1018B000013C751E3444A54207D002F051FD036877
:1018C00015F8011F9B689847F5E702F049FD00F005
:1018D000C7FFB0FA80F04009F8BD07B502AB03F8C6
:1018E000012D0122FFF7D4FF03B05DF804FB0000D7
:1018F000F7B516461F460D4B0DF107021B8804462F
:101900000D46FFF7A3FF01229DF80730B24017B143
:101910001A43D2B201E023EA0202294620468DF89A
:101920000720FFF7DAFF03B0F0BD00BF4000002042
:10193000F7B51F46114B16461B880DF107020446EA
:101940000D46FFF783FFB8B101239DF82010F21B6D
:10195000BB400132013B934001FA02F29DF80710AF
:10196000D2B221EA0301134041EA0302204629468C
:101970008DF80720FFF7B1FF03B0F0BD4000002055
:10198000F8B5074614460D461E4602F0E9FC3946F6
:1019900000F05EFF02F0E4FC036829469B6898476C
:1019A00065000024AC4211DA02F0DAFC36F81410BB
:1019B0000368090A9B68984702F0D2FC036816F88E
:1019C00014109B6802349847E4B2EBE702F0C8FCBD
:1019D00000F046FFB0FA80F04009F8BD07B502AB51
:1019E00023F8022D0122FFF7CBFF03B05DF804FBC3
:1019F00000F030BA68230370704707B502230078FF
:101A0000042200911B21FFF793FF03B05DF804FB54
:101A100007B502230078042200911C21FFF788FFFC
:101A200003B05DF804FB000013B50446074B0078D3
:101A30001B88022200933B21631CFFF7A7FE6078FE
:101A4000A37843EA002000B202B010BD400000209D
:101A500013B50446074B00781B88022200933D21F2
:101A6000631CFFF793FE6078A37843EA002000B27E
:101A700002B010BD4000002013B50446074B0078AB
:101A80001B88022200933F21631CFFF77FFE6078D2
:101A9000A37843EA002000B202B010BD400000204D
:101AA0000B4606226B210078FFF722BF07B5032300
:101AB0000078022200916B21FFF73AFF03B05DF836
:101AC00004FB10B504460121FFF7F0FF204600217A
:101AD000FFF793FF20460021FFF79AFF2046BDE85D
:101AE00010400021FFF7DCBF034613B5074A044648
:101AF00013F8010B128800930623019275211A46F0
:101B0000FFF7ADFE607802B010BD00BF40000020BE
:101B100008B5FFF7E9FFA0F134035842584108BD6A
:101B20008AB200780621FFF759BF8AB200780821EF
:101B3000FFF754BF8AB200780A21FFF74FBF8AB27D
:101B400000781321FFF74ABF8AB200781521FFF70A
:101B500045BF8AB200781721FFF740BF00F07AB97D
:101B600008B5024B1B689B6C019308BDC0010608B9
:101B700008B5024B1B681B68019308BDD801060815
:101B800008B5024B1B685B68019308BDD8010608C5
:101B900008B5024B1B689B68019308BDD801060875
:101BA00008B5024B1B681B69019308BDD8010608E4
:101BB00008B5024B1B685B69019308BDD801060894
:101BC00008B5024B1B689B69019308BDD801060844
:101BD00008B5024B1B68DB69019308BDD8010608F4
:101BE00008B5024B1B681B6A019308BDD8010608A3
:101BF00008B5024B1B68DB6C019308BDAC010608FD
:101C000008B5024B1B685B6D019308BDAC0106086B
:101C100008B5024B1B689B6D019308BDAC0106081B
:101C200008B5024B1B68DB6D019308BDAC010608CB
:101C300008B5024B1B681B6E019308BDAC0106087A
:101C400008B5024B1B685B6E019308BDAC0106082A
:101C500008B5024B1B689B6E019308BDAC010608DA
:101C600008B5024B1B68DB6E019308BDAC0106088A
:101C700008B5024B1B681B6F019308BDAC01060839
:101C800008B5024B1B685B6F019308BDAC010608E9
:101C900008B5034B1B68D3F88030019308BD0000E2
:101CA000AC01060808B5024B1B689B69019308BD8F
:101CB000C401060808B5024B1B681B6A019308BDE6
:101CC000C401060808B5024B1B685B6A019308BD96
:101CD000C401060808B5024B1B689B6A019308BD46
:101CE000C401060808B5024B1B68DB6A019308BDF6
:101CF000C401060808B5024B1B681B6B019308BDA5
:101D0000C401060808B5024B1B685B6B019308BD54
:101D1000C401060808B5024B1B689B6B019308BD04
:101D2000C401060808B5024B1B681B6C019308BD73
:101D3000C401060808B5024B1B68DB6C019308BDA3
:101D4000C401060808B5024B1B681B6B019308BD54
:101D5000D001060808B5024B1B685B6C019308BDF7
:101D6000D001060808B5024B1B68DB6C019308BD67
:101D7000D001060808B5024B1B685B6D019308BDD6
:101D8000D001060808B5024B1B685B68019308BDCB
:101D90009C01060808B5024B1B68DB68019308BD6F
:101DA0009C01060808B5024B1B685B69019308BDDE
:101DB0009C01060808B5024B1B68DB69019308BD4E
:101DC0009C01060808B5024B1B689B6D019308BD7A
:101DD0009C01060808B5024B1B681B68019308BDEF
:101DE000B401060808B5024B1B689B68019308BD47
:101DF000B401060808B5024B1B68DB68019308BDF7
:101E0000B401060808B5024B1B681B69019308BDA5
:101E1000B401060808B5024B1B685B69019308BD55
:101E2000B401060808B5024B1B68DB69019308BDC5
:101E3000B401060808B5024B1B681B6A019308BD74
:101E4000B401060808B5024B1B685B6A019308BD24
:101E5000B401060808B5024B1B681B68019308BD56
:101E6000B001060808B5024B1B685B68019308BD0A
:101E7000B001060808B5024B1B689B68019308BDBA
:101E8000B001060808B5024B1B68DB68019308BD6A
:101E9000B001060808B5024B1B681B69019308BD19
:101EA000B001060808B5024B1B685B69019308BDC9
:101EB000B001060808B5024B1B681B6A019308BDF8
:101EC000B001060808B5024B1B685B6A019308BDA8
:101ED000B001060808B5024B1B681B6B019308BDD7
:101EE000B001060808B5024B1B685B6B019308BD87
:101EF000A801020808B5024B1B68DB6E019308BD00
:101F0000A801020808B5024B1B681B6F019308BDAE
:101F1000A801020808B5024B1B689B68019308BD25
:101F2000CC01060808B5024B1B685B69019308BD2C
:101F3000CC01060808B5024B1B681B6B019308BD5A
:101F4000CC01060808B5024B1B68DB6B019308BD8A
:101F5000CC01060808B5024B1B681B6C019308BD39
:101F6000CC01060808B5024B1B685B68019308BDED
:101F7000C801060808B5024B1B689B68019308BDA1
:101F8000C801060808B5024B1B68DB68019308BD51
:101F9000C801060808B5024B1B681B69019308BD00
:101FA000C801060808B5024B1B685B69019308BDB0
:101FB000C801060808B5024B1B689B69019308BD60
:101FC000C801060808B5024B1B68DB69019308BD10
:101FD000C801060808B5024B1B681B6A019308BDBF
:101FE000C801060808B5024B1B681B6B019308BDAE
:101FF000C801060808B5024B1B685B6B019308BD5E
:10200000C801060808B5024B1B681B68019308BD90
:10201000A401060808B5024B1B685B68019308BD64
:10202000A401060808B5024B1B685B69019308BD53
:10203000A401060808B5024B1B689B6D019308BDFF
:10204000A401060808B5034B1B68D3F89030019330
:1020500008BD0000A401060808B5034B1B68D3F8AF
:102060009C30019308BD0000A401060808B5024B8E
:102070001B681B68019308BDA001060808B5024B48
:102080001B685B68019308BDA001060808B5024BF8
:102090001B689B68019308BDA001060808B5024BA8
:1020A0001B68DB68019308BDA001060808B5024B58
:1020B0001B681B69019308BDA001060808B5024B07
:1020C0001B689B69019308BDA001060808B5024B77
:1020D0001B68DB69019308BDA001060808B5024B27
:1020E0001B681B6A019308BDA001060808B5024BD6
:1020F0001B685B6A019308BDA001060808B5024B86
:102100001B68DB6A019308BDA001060808B5024BF5
:102110001B681B6B019308BDA001060800F11002AB
:10212000012312F8101C1046012904D152F8041C96
:1021300003EB410304E0022904BF52F8041C5B18BE
:10214000013B02F11002ECD170470EB42DE9F041D1
:1021500087B000AF07F1340454F8046B05462346FA
:102160003246102107F108007C60FFF7BFFF0F28FF
:1021700016D900F1080323F00703E846ADEB030D81
:102180003246411C234668467C60FFF7AFFF021EC3
:1021900004DD2B6869469B6828469847C54607E0DA
:1021A00030B12B6802469B6807F108012846984722
:1021B0001C37BD46BDE8F04103B0704710B504467A
:1021C00003689B689847A368013BA3602BB9236809
:1021D0002046BDE81040DB68184710BD13B5026803
:1021E00002AB03F8011D946819460122A04702B012
:1021F00010BD8368FBB11A78032A1AD8DFE802F011
:102200000417021D0520704702685B685268D05CA5
:102210002D2814D0A0F13003092B10D9742810D028
:1022200066280ED0A0F16E03584258417047062030
:1022300070470020704718467047042070470320FD
:1022400070470220704710B50446FFF7D2FF0228FE
:102250000DD016D3042814D82268A36850685B6890
:102260000A2200211844BDE8104004F04FB922684A
:10227000A36852685B68D05CA0F17403584258416F
:1022800010BD002010BD10B5436904465BB18068E5
:10229000013BE0601030A060206163612BB1FFF76B
:1022A0003DFFA06001E0184610BD012010BD10B533
:1022B00004467D21FFF792FF01232371204610BDC4
:1022C00008B50379012B02D0022B02D008BD2C21C6
:1022D00000E03A21FFF782FF08BD10B50446FFF782
:1022E000EFFF20467B21FFF779FF00232371204673
:1022F00010BD000038B504460D46FFF7E1FF236826
:102300002046DB682A46034998470123237120466B
:1023100038BD00BF65970A0838B504460D46FFF77B
:10232000CFFF23682046DB682A46034998470123EC
:102330002371204638BD00BF59920A08F8B50D46F2
:10234000174622210446FFF749FF2A4629462F4413
:10235000BA4238D0164616F8015B222D03D05C2D08
:1023600001D01F2D2DD82368521A9B68204698470C
:102370005C212046FFF732FF0C2D19D007D8092D1C
:102380000FD00A2D12D0082D14D162210AE0222D7F
:1023900005D05C2D03D00D2D0CD1722102E0294611
:1023A00000E074212046FFF719FF09E06E21F9E7EC
:1023B0006621F7E723682A46DB68094920469847E3
:1023C00031463246C4E7914204D02368521A9D68D0
:1023D0002046A84722212046FFF700FFF8BD00BF96
:1023E00064920A0870B504460D461646FFF768FF6A
:1023F000204632462946FFF7A1FF022323712046DB
:1024000070BD70B504460D461646FFF759FF2046CD
:1024100032462946FFF792FF01232371204670BD03
:1024200010B50446006828B14368013B43600BB90E
:10243000FFF7C4FE204610BD38B50C68036805469A
:102440009C420CD014B1636801336360286828B1E2
:102450004368013B43600BB9FFF7B0FE2C60284690
:1024600038BD000010B504460023036043601048E7
:10247000E360A060D1B10B78032B06D0B3B9136829
:1024800058684B68C35C6E2B08D0136858684B685B
:102490000344A3608B6849685B1AE36011462046D9
:1024A00051F8043B40F8043BFFF7C6FF204610BD3F
:1024B0006F940A08002310B50446036043608360EC
:1024C000C3600361436171B10B78012B0BD101F142
:1024D00010038360CB681146436151F8043B40F818
:1024E000043BFFF7A9FF204610BD002310B50446AA
:1024F00003604360816031B1114651F8043B40F8FC
:10250000043BFFF799FF204610BD00231A464068A0
:10251000FFF728BD002202214068FFF733BD0022EB
:1025200011464068FFF726BD002211464068FFF7BC
:1025300031BD00231A4619464068FFF733BD00231A
:102540001A4619464068FFF735BD002281F00101A7
:102550004068FFF737BD00224068FFF743BD002207
:1025600011464068FFF746BD002211464068FFF75C
:1025700031BD000070B516468EB0044608A800F0C4
:102580006FFA1122002103A803F09CF9304603F0F2
:1025900007FF00250A4B009581B25B6803AA30460D
:1025A000FFF7DEFA20B12946204600F079FA03E071
:1025B00003A9204600F062FA20460EB070BD00BFAD
:1025C000A0010020024B034A1A6000225A607047A3
:1025D0009801002074920A08002211464068FFF713
:1025E000D9BCF0B5164689B011220F460446002129
:1025F00003A803F067F9304603F0D2FE00250095EA
:1026000081B27B6803AA3046FFF7AAFA20B12946B7
:10261000204600F045FA03E003A9204600F02EFA18
:10262000204609B0F0BD002211464068FFF7D2BC39
:10263000002211464068FFF7DDBC00224068FFF72A
:10264000D1BC002281F001014068FFF7BBBC002330
:102650001A4619464068FFF7ADBC00231A461946D2
:102660004068FFF79FBC002211464068FFF782BC1C
:10267000002202214068FFF785BC00231A4640680B
:10268000FFF770BC024B04225A60024A1A6070477E
:10269000A0010020A8920A08704710B50446102136
:1026A00001F03EFF204610BD70B504460E46074BB4
:1026B0000025036040F80C5FFFF744FB30462671AD
:1026C000FFF7B0FBA560204670BD00BFDC920A0892
:1026D0004FF6FF710079FFF77DBB0079FFF782BBF2
:1026E0000079FFF787BB0000054A0023995C81420F
:1026F00002D00133082BF9D1581CC0B2704700BF7B
:10270000E4920A08400830B5186000241868E5B261
:10271000884206D90134082C02D040081860F5E739
:102720000725024B5B5D137030BD00BFE4920A08C1
:1027300070B5044602FB01F588B006791422002129
:1027400003A803F0BFF80B2303A930460022ADF81D
:102750000C30FFF777FB02AB0DF107022946049816
:10276000FFF7D0FF20799DF80710FFF74BFB029889
:1027700008B070BD38B50446A56808464DB1FFF7EE
:10278000B3FF012225FA00F12046BDE83840FFF7EB
:10279000CFBF2079BDE83840FFF734BB08B50079DA
:1027A000FFF738FBC0B208BD0079FFF743BB7047A5
:1027B000F8B5064615460C468F18BC4206D033685D
:1027C00014F8011B9B6830469847F6E72846F8BD89
:1027D0000022007CFFF72CBA0021007CFFF730BA02
:1027E0000021007CFFF734BA0021007CFFF738BAE3
:1027F0000021007CFFF73CBA10B50446142101F01B
:102800008FFE204610BD000010B5044608464FF468
:102810007A73A360044B0021207461602360FFF78A
:1028200037FA204610BD00BFF4920A0800231A466A
:102830001946007CFFF7DCB913B50024007C009436
:10284000FFF7DEF9C0B202B010BD0123FFF7F4BFFD
:102850000022007CFFF7DCB90022007CFFF7E0B922
:102860000121FFF7F9BF0021007CFFF709BA41748D
:102870007047704708B50021007CFFF7A1F930EAE6
:10288000200028BF4FF0FF3008BD08B50121007CB3
:10289000FFF796F930EA200028BF4FF0FF3008BD5F
:1028A00008B5007CFFF784F920EAE07008BD08B5A0
:1028B000007CFFF775F920EAE07008BD007CFFF7A7
:1028C0008FB910B50446142101F02AFE204610BD30
:1028D00038B50446007C0D46FFF76AF9002801DC94
:1028E000607C28B12946207CFFF772F920EAE0706D
:1028F00038BD000010B50446002363604FF47A73BE
:10290000A360054B084623600123217463741146BC
:10291000FFF72EF9204610BD1C930A080022007C08
:10292000FFF72EB9007CFFF733B9000010B504465D
:102930001422002102F0C6FF054B20466360054BC0
:10294000E36040F2011323818123238210BD00BF85
:102950002D020020AC01002030B50E4D87B001A83B
:10296000FFF7E4FF296811F0010410D12846FDF7B4
:10297000A5FB60B101AA21460748FFF7BBFF284627
:10298000FDF7A1FB054A0649034801F0BBFD0248DB
:1029900007B030BDA8010020300300200401002052
:1029A00073280A0810B504461422002102F08AFF99
:1029B000054B20466360054BE36040F20113238121
:1029C0008123238210BD00BFE003002048030020C4
:1029D00010B50E4C86B001A8FFF7E4FF2368DB07B3
:1029E00010D42046FDF76AFB60B101AA0121084816
:1029F000FFF780FF2046FDF766FB064A06490448BC
:102A000001F080FD024806B010BD00BF4403002065
:102A1000CC0300200401002073280A08704710B579
:102A20000446182101F07CFD204610BDF8B50F4684
:102A300000F10806051D002416F8011D0A2238467B
:102A400001F04DFAAE42044407D0002CF4D02E2100
:102A5000384601F001FA0444EEE72046F8BD0000D4
:102A600010B50446044B112240F8043B002102F04B
:102A700029FF204610BD00BF4C930A080346074AB1
:102A800010B543F8042B01F1100251F8044B9142A8
:102A900043F8044BF9D10A781A7010BD4C930A0818
:102AA000024A416002600422027570474C930A0892
:102AB00010B59DF8084044EA032343EA024242EA83
:102AC000016104234160037510BD000037B5044D5A
:102AD00005609DF818500095FFF7EAFF03B030BD80
:102AE0004C930A0810B58368044613B103220146CB
:102AF0009847204610BD08460021FFF72BBA0B6807
:102B0000036013B15A6801325A6070470021FFF721
:102B100089BA000008B5144B33B1FFF71DFF0368F5
:102B20001B699847002816DC104B33B101F062FB9B
:102B300003681B699847002810DC0D4B0BB1AFF3FD
:102B400000800C4B7BB1FFF743FF03681B6998477C
:102B5000002806DC08BDAFF30080E5E7AFF3008096
:102B6000EBE7AFF3008008BD0000000000000000AC
:102B7000000000000000000008B5FFF7CBFFFFF7E2
:102B800011F9014B186008BDA00600200248034A55
:102B90000349121A02F070BE004002400440024095
:102BA000609A0A0807B5002300931A466FF0770170
:102BB000FFF752FA03B05DF804FB000007B5438845
:102BC0000A2B08D0502B09D1094B1B683BB103B02D
:102BD0005DF804EB1847FFF7E5FF06E000230093DC
:102BE0001A466FF07701FFF737FA03B05DF804FB80
:102BF000E404002038B5104C104D2368AB42104B54
:102C00000CBF012200221A7002D0FFF7BFFF25601F
:102C1000FFF7B8F8044602F05DFE0A4B13B12046F8
:102C2000AFF3008000210748FFF78CF9BDE838407A
:102C300000210548FFF706BA004002401E1C279AF3
:102C4000E804002000000000BD2B0A0810B504466F
:102C5000FFF748FF204610BD034800238360034A66
:102C6000034901F04FBC00BFEC0400200401002028
:102C70004D2C0A08FFF726B9FFF71CB908B500204C
:102C8000FFF758F928B1FFF74DF980F00100C0B205
:102C900008BD012008BD000037B50E4B04461B6877
:102CA00002A819440C4B1B68194440F8041D02F09B
:102CB000EBFC02F09FFC054603F072FB0023284466
:102CC00000F8013C2946204601F01DFB204603B0D8
:102CD00030BD00BF08050020040500202DE9F047A5
:102CE000A4B014AC07468946204611461D4602F0A2
:102CF0003BFE204603F054FB804625B9244903A837
:102D000002F032FE13E03C2195FBF1F2002AB8BF3D
:102D1000524292FBF1F301FB13224FF461630092E4
:102D200095FBF3F31B4A102103A8FFF7CFF92546C3
:102D30002E1B08F1FF3AB2451BD92B78252B16D153
:102D40006B787A2B13D103A803F02AFB804630441A
:102D5000C6EB0A02A91C204402F08EFD424603A9DC
:102D6000284602F089FD204603F01AFB8046013513
:102D7000DEE74B462246322107A802F05DFE07A996
:102D8000384601F0C0FA384624B0BDE8F08700BFED
:102D9000C1990A0858930A08F7B5054601921C46DE
:102DA00013B9124B1C682CB1114B2046196802F064
:102DB000D1FD20B901992846FFF76EFF13E00D4FB2
:102DC000019A3B680C4E1A44336802A8134440F839
:102DD000043D02F059FC3A68336801461344284622
:102DE0002246FFF77BFF284603B0F0BD0005002018
:102DF00044000020080500200405002010B5002034
:102E0000FEF7E0FF044668B9FFF7FCF801280BD194
:102E10002046FFF70FF938B9FFF730FF30B9FFF759
:102E200079F8F9E7012010BD002010BDFFF726FF5B
:102E30000020FEF7C7FF003018BF012010BD08B505
:102E4000FFF7DCFFBDE80840FEF7B4BF024B1A688D
:102E5000024B1A60704700BF4400002000050020AC
:102E600080680368DB681847704719B10B6808462B
:102E70005B681847704719B10B6808465B681847CC
:102E8000704770477047704738B504460D46006874
:102E90002E2102F055FD2368C31A2B6023B103785D
:102EA00003B1013023682060184638BD10B50446D0
:102EB0000C2101F035FB204610BD10B5044604215D
:102EC00001F02EFB204610BD10B50446042101F090
:102ED00027FB204610BD38B50C460546FFF73CFDE4
:102EE000844202D1FFF738FD05E0FFF771FD84420F
:102EF00005D1FFF76DFDBDE83840FFF713BD01F0C8
:102F000079F9844205D101F075F9BDE8384001F046
:102F10006AB921462846FFF7AEFF38BD08B502F072
:102F200019FDB0FA80F0400908BD38B505460846DD
:102F30000C4603F035FA214602462846BDE83840E3
:102F4000FFF75FBA0068FEF70DBF70B5044608468C
:102F50000D4603F025FA2368024629462046BDE8BF
:102F60007040DB68184713B5026802AB03F8011D17
:102F7000D46819460122A04702B010BD2DE9F04FD8
:102F800007688B463C46456891461422554385B0F8
:102F90000193AB10184D02925D430123002D039362
:102FA00023DD029B6E1003FB06F004EB0008B8F86B
:102FB00004A04A46D14528BF52465946205803F03E
:102FC000F7F9039B48B9D14503D1019A13703546EF
:102FD000E4E78CBF0120002000E0C00F0028F6D0FD
:102FE000AE1B08F11404013EF1E7E41B0248A410F3
:102FF000604305B0BDE8F08FCDCCCCCCF0B5036913
:1030000085B00191067E13B309B300231D4604AFBA
:1030100000F10C0447F8043D394601A8FFF734FFDE
:103020000146A0B104AB03F8055D039A2046FFF703
:10303000A5FF9DF80B3053B12368142404FB003422
:10304000B4F906300834002BA8BFDEB2E4E73046FE
:1030500005B0F0BD10B5094C2368DB070BD4204642
:10306000FDF72CF838B12046FDF72DF8044A054944
:10307000054801F047FA044810BD00BF0C050020C8
:1030800004010020852E0A084C00002010B5094CD0
:103090002368DB070BD42046FDF710F838B1204633
:1030A000FDF711F8044A0549054801F02BFA0448D8
:1030B00010BD00BF3C05002004010020832E0A083B
:1030C0004800002038B5002504460560456085604D
:1030D00005614561856140F8245FFEF73BFEFFF71F
:1030E000B9FFE061FFF7D2FF25732062204638BDAB
:1030F00010B50A4C2368DB070ED42046FCF7DEFF30
:1031000050B10748FFF7DEFF2046FCF7DCFF054A19
:103110000549034801F0F6F9014810BD10050020EB
:10312000140500200401002079350A080023024A12
:1031300002490348FEF7E6BE5D340A08ED330A088B
:1031400075330A0800231A4619461846FEF7DABEF8
:1031500073B505460E6951F8043B02AC44F8083DCE
:1031600001A8FFF7CCFC224631462846FFF7BDF9FF
:1031700001A8FFF755F9284602B070BD73B50546A2
:103180008E6851F8043B02AC44F8083D01A8FFF7F3
:10319000B6FC224631462846FFF78CF901A8FFF716
:1031A0003FF9284602B070BD73B50546CE6851F8A8
:1031B000043B02AC44F8083D01A8FFF7A0FC2246FE
:1031C00031462846FFF74EF901A8FFF729F92846AE
:1031D00002B070BD30B58BB00D46014604A8FFF7B4
:1031E000CDFF04A8FFF74FF8E8B104A96846FFF740
:1031F000DBFF0F490298FFF791FE044610B12C1C2B
:1032000018BF012401A8FFF70BF9002CE9D004A98D
:103210006846FFF79DFF6846FFF715F8286001A88C
:10322000FFF7FEF8DDE705A8FFF7FAF80BB030BDB1
:10323000C8930A0837B50C461A492046154602F0CD
:1032400089FB40B9FFF788FB4FF41651FFF766FB87
:10325000FFF782FB23E01449204602F07BFB40B9D4
:10326000FFF7B6FB4FF41651FFF758FBFFF7B0FB23
:1032700015E00E49204602F06DFB78B902A94FF423
:10328000165341F8043D2846FFF7A4FF00F0B2FFB3
:10329000019900F0A5FF00F0ADFF00E0002003B0B1
:1032A00030BD00BFCD930A08D4930A08D7930A080B
:1032B00070B5054604684368142606FB0346A6421B
:1032C00005D004F10800FFF7F3FF1434F7E728688E
:1032D000FEF7D4FE284670BD70B505460468436805
:1032E00004EB0316A64204D0204600F0C5FF1034BC
:1032F000F8E72868FEF7C2FE284670BD10B5044600
:103300000C30FFF7D5FF2046FFF7E6FF204610BD43
:1033100010B50446034B40F8043BFFF7EFFF20468F
:1033200010BD00BF9C6C0A0810B50446FFF7F0FF03
:103330002046242101F0F4F8204610BD10B50446C3
:10334000024B0360FFF7E4FF204610BDA0930A087C
:1033500010B50446FFF7F2FF2046242101F0E0F803
:10336000204610BD10B5044603681868FEF702FD3C
:10337000204610BD2DE9F04F9B461B4B85B05B6886
:103380008246C3F308030E46904653BBFFF7B0FED8
:10339000044624300390FFF7D5FD237BF3B90123C6
:1033A000237325686368F6B205EB83094D4513D096
:1033B00055F8047B4146381DFFF720FE8642F5D3C1
:1033C0003B68CDF800B09B6838469E46324643467F
:1033D00051467746B847E9E70023237303A8FFF770
:1033E000C1FF05B0BDE8F08F00ED00E02DE9F74F1B
:1033F0009946194B07465B688846C3F3080316468F
:1034000033BBFFF775FE044624300190FFF79AFDA9
:10341000237BD3B901232373256863685FFA86FB96
:1034200005EB830A55450ED055F8046B4946301D0F
:10343000FFF7E4FD8345F5D333684246DB68394640
:1034400030469847EEE70023237301A8FFF78AFF71
:1034500003B0BDE8F08F00BF00ED00E02DE9F341BF
:10346000154B04465B688846C3F30803FBB9FFF7B6
:103470003FFE064624300190FFF764FD96E8A00069
:10348000462605EB8707AF4207D101A8FFF76AFF81
:10349000B442B4BF002001200AE055F8040B4146B5
:1034A0000430FFF7ABFD8642A8BF0646EBE70020DD
:1034B00002B0BDE8F08100BF00ED00E070B5044649
:1034C0000368426803EB82029A4218460DD00668F0
:1034D0000D680433AE42F7D1011D521A02F0D7F93C
:1034E00063680120013B636070BD002070BD1FB5A3
:1034F0000446243001910390FFF724FD01A92046E2
:10350000FFF7DCFF20B903A8FFF72CFF04B010BDC4
:103510006368002BF7D1FFF715FEF4E770B504469A
:1035200005694369182606FB0356AE4215D005F11E
:1035300010012046FFF7C2FF63680BB9FFF702FED8
:10354000E06929690368DB689847696919B1206AED
:103550000368DB6898471835E7E72569636918262B
:1035600006FB0356B54204D0284600F085FE183508
:10357000F8E70023636170BD73B5044602ADFFF741
:10358000E1FD04F1240045F8040DFFF7DBFC2046C3
:10359000FFF7C4FF2846FFF7E5FE25696369182693
:1035A00006FB0356B54204D0284600F065FE1835E8
:1035B000F8E72069FEF762FD2068FEF75FFD204610
:1035C00002B070BD03680A6802600B6043684A6815
:1035D00042604B6083688A6882608B60704710B578
:1035E00004460023036043608360FFF7EBFF20463F
:1035F00010BD8842F8B50446164625D9904224D21B
:10360000551A143D2C44A1F11407A2F10C05002613
:10361000A5F108039F4237D084B155F8083C2946EC
:10362000236035F8043C04F10800A38035F9023C1E
:10363000A660E380E6602661FFF7C4FF2846FFF737
:1036400037FE143C143DE3E71ED001F108050027C6
:10365000A5F108039E4217D084B155F8083C2946CD
:10366000236035F8043C04F10800A38035F9023CDE
:10367000A760E380E7602761FFF7A4FF2846FFF714
:1036800017FE14341435E3E7F8BDF8B545688368D0
:1036900004469D420E4617460EDB0135002D05DD22
:1036A000A9000068FEF7F2FC20B9F8BD0068FEF73B
:1036B000E5FC00202060A5602568626805EB8601B6
:1036C00005EB8202521A081D02F0E1F845F8267057
:1036D0006368012001336360F8BD37B504462430C8
:1036E0000D460190FFF72EFC2368616803EB810013
:1036F00083421A4608D012680433AA42F8D101A8BE
:10370000FFF730FE00250EE02A462046FFF7BDFFFA
:1037100005460028F3D06368012B01D1FFF706FDB1
:1037200001A8FFF71FFE284603B030BD8842F8B558
:1037300006460C46154614D9904213D2A2F1100544
:103740006C1AA1F110070444AF4218D01CB12946ED
:10375000204600F081FD284600F08EFD103D103C13
:10376000F2E70CD0AC420AD01EB12146304600F040
:1037700073FD204600F080FD10341036F2E7F8BDEE
:1037800070B50E1E05460BDD3001FEF76FFC0446DA
:1037900070B195E8060001EB0212FFF7C7FF00E0E9
:1037A00000242868FEF76AFC2C60AE60012070BD22
:1037B00070BD2DE9F04F92460023462295B003607C
:1037C00043608360C3600361436102760291DAF86B
:1037D000041005469942089309930A9340F39D808B
:1037E00008A8FFF7CDFF002840F097808EE0214623
:1037F0000BA800F031FD0BA90FA8099E00F02CFDCD
:1038000009990A9B9942C0F2CE80013108A8FFF7BE
:10381000B7FF002840F0C7800FA800F02DFD0BA8CF
:1038200000F02AFD1434A742E1D10026B1460B96E0
:103830000C960D96099B9E4280F2A880089A33014F
:10384000D3580693002B00F09F8014237343CDF8C8
:103850001C9001930BAC07A906A8FFF715FB0746C0
:10386000002800F0918014AB014603F8399D079AB7
:103870002046FFF783FB9DF817800090B8F1000FFA
:1038800053D1BDF81C300F97ADF840304FF6FF73A1
:10389000CDF84480ADF84230CDF84880CDF84C806A
:1038A0006768A3689F424FDA009B14225343D4F801
:1038B00000B061680BEB030702FB01B207F11400D3
:1038C00039460393FFF795FEA7B10F9A039B11A901
:1038D0004BF80320BDF8403007F10800BB80BDF96C
:1038E0004230C7F80890FB80C7F80C90C7F81090DA
:1038F000FFF768FE63680133636011A8FFF7D8FC27
:10390000B8F1000F11D00BA8FFF7D2FC08A8FFF701
:10391000E3FC284615B0BDE8F08FDAF80040DAF88D
:103920000430142707FB03477DE72368009A14241B
:1039300004FB0234069B1B7823BBDAF80030019AA3
:1039400013441B7CE3801DE00137002F0FDD14239F
:1039500003FB07F00393FEF789FB834678B194E8F5
:103960000600039B03FB0212FFF743FE00E0C34681
:103970002068FEF783FBC4F800B0A76094E74FF01F
:103980000108BAE7083466E7013653E708A9284674
:10399000FFF718FE0BA905F10C00FFF713FE9DF8C9
:1039A00008302B76AFE7089B099A03EB061603EB6A
:1039B0000212314606F11000FFF7B8FE1EB10FA942
:1039C000304600F049FC099B0133099324E70000CD
:1039D0007FB504460E460546084B114644F8043BA5
:1039E00001A8FCF7B0FC01AA31462046FFF7E1FE32
:1039F00001A8FCF767FC284604B070BD9C6C0A085F
:103A0000F0B50F468BB02B49384616461D46109C24
:103A100001F0A0FF28BB002C49D0294601A8FFF7E0
:103A2000DEFD2549242000F07DFD0546B8B101A941
:103A300004A8FFF7D4FD04A907A8FCF784FC07AA93
:103A400031462846FFF7C4FF07A8FCF73BFC1B4B99
:103A50002C622B6004A8FCF735FC194B2B6001A8E5
:103A60001FE01849384601F075FFF0B9FCB129464E
:103A700004A8FFF7B4FD1049242000F053FD0546CB
:103A800070B104A907A8FCF75EFC07AA31462846D6
:103A9000FFF79EFF07A8FCF715FC084B2C622B6074
:103AA00004A8FCF70FFC284602E0002000E02046B6
:103AB0000BB0F0BD29940A0818950A08B0940A08BA
:103AC000A0930A082D940A08014A024B1A60704715
:103AD0003E940A08400500202DE9F047089DD0F8E3
:103AE000209004460E4617469846FEF735FF81455E
:103AF00005D15A48FEF738FD002840F0AC802B79FC
:103B00001B0705D56B69564A0021206A00F0D2FADE
:103B1000B8F1000F0DD05B212046FFF724FA414693
:103B20002046FFF712FA23680222DB684D4920463F
:103B300098472B79D90725D5D5F808802F214046FD
:103B400002F04BFC08B100F1010841462046FFF7A6
:103B5000FCF92B799A0709D53A212046FFF703FA99
:103B6000EB68414A0021206A00F0A4FA2B79022276
:103B700013F0040F236818BF3C49DB6808BF3C49B9
:103B8000204698472B795B0718D529690A461346C2
:103B900013F8010B38B1202801D1194601E028287B
:103BA00001D01A46F3E72368521ADB68204698478B
:103BB00023680422DB682F492046984700213846B5
:103BC000FEF798F901462046FFF7BFF92368022265
:103BD000DB682749204698471EB131462046FFF74B
:103BE000B4F92B7913F0300F2DD023682046DB6811
:103BF0000222214998472B79D8060BD52368072242
:103C0000DB681E4920469847AB691D4A0021206A9F
:103C100000F050FA2B79990611D5DA0605D52368FC
:103C20000222DB681149204698472368154920463F
:103C3000DB680A229847E9692046FFF786F95D218B
:103C40002046FFF790F923682046BDE8F047DB687F
:103C500002220D491847BDE8F08700BF98010020F7
:103C600042940A0849940A0865970A084C940A087D
:103C700051940A084F940A0854940A0857940A0861
:103C80005F940A0862940A086D940A082DE9F043CB
:103C900085B0D0F8208006460F4691461D460C9C04
:103CA000FEF75AFE804505D14A48FEF75DFC002824
:103CB00040F08C80336A484A4FF0000801A8019216
:103CC00003938DF80880FEF708FB41464846FEF74F
:103CD00011F980464149012201A8FEF783FB4146C4
:103CE000FFF723F93FB13E49012201A8FEF77AFB15
:103CF0003946FFF71AF93DB13A49012201A8FEF70A
:103D000071FB2946FFF711F92379DF070ED5A56866
:103D10002F21284602F061FB00B1451C32490122E7
:103D200001A8FEF75FFB2946FFF7FFF823799D07FF
:103D300007D52E49022201A8FEF754FBE168FEF7E1
:103D4000D9FA2379580716D525692F463B4613F82B
:103D5000012B3AB1202A01D11D4601E0282A01D0C9
:103D60001F46F3E70222224901A8FEF73BFB7A1B1C
:103D70002946FEF746FB2379190707D51D4901227D
:103D800001A8FEF72FFB6169FEF7C6FA2379DA0670
:103D900008D5042218490DEB0200FEF723FBA169A8
:103DA000FEF7A8FA23799B0607D51449062201A835
:103DB000FEF718FBE169FFF7B8F801A8FEF777FAFC
:103DC000306A022203680E49DB68984705B0BDE8F7
:103DD000F08300BF9801002088930A08D2930A0854
:103DE000E8930A08C7970A08E4940A0870940A0836
:103DF00073940A0835980A0876940A087B940A088E
:103E00006D940A08F8B506460D468F180024BD4289
:103E10000CD0336815F8011B9B6830469847002882
:103E200001DB0444F3E7002C08BF04462046F8BD3C
:103E300070B505460C46084649B102F0B1FA2B6848
:103E4000024621462846BDE87040DB68184770BD31
:103E500008B5FFF7EDFF08BD03689B68184738B544
:103E60000D210546FFF7F8FF0A2104462846FFF713
:103E7000F3FF204438BD38B50546FFF7D9FF0446A7
:103E80002846FFF7ECFF204438BD012A98BF0A22DC
:103E900030B50B468BB000218DF824100DF12304B2
:103EA000B3FBF2F505FB1233DBB2092B94BF3033C1
:103EB0003733DBB2214604F801392B46002DEFD110
:103EC000FFF7B6FF0BB030BD10B422B90368C9B21A
:103ED0009B6810BC1847D2B210BCFFF7D6BFFFF7E3
:103EE000F3BF2DE9F04107460E4615462AB9BDE855
:103EF000F0410368C9B29B6818470A2A02D1002919
:103F000001DA04E0D2B2BDE8F041FFF7BEBF2D21D7
:103F1000FFF7A2FF2A46044671423846FFF7B5FF75
:103F20002044BDE8F08138B50546FFF7DAFF0446C6
:103F30002846FFF794FF204438BD00002DE9F843E0
:103F400019468046104617461E469DF8205001F03F
:103F500095F808B1474912E026F000444FF0FF32CF
:103F6000454B3846214601F089F868B94FF0FF32D9
:103F7000414B3846214601F063F828B93F49404695
:103F8000FFF756FFBDE8F8834FF060423C4B3846E0
:103F9000314601F069F808B13A49F0E74FF0604264
:103FA000394B3846314601F041F80028F4D100225F
:103FB00000233846314601F039F838B12D2140460A
:103FC000FFF74AFF06F10046044600E004462F4989
:103FD0004FF0000900205FFA89F39D4206D90022C4
:103FE0002B4B00F0DBFE09F10109F4E73A463346BA
:103FF00000F0F8FB0F46064601F07EF80A22014663
:1040000081464046FFF741FF04447DB3484600F037
:1040100025FD02460B463046394600F0E1FB0646D8
:104020000F4640461B49FFF703FF0444184B00228C
:104030003046394600F088FD0F46064601F034F858
:104040000A22014681464046FFF74BFF044448469A
:1040500000F014FD02460B463046394600F0C0FB26
:10406000013D15F0FF0506460F46DFD12046BDE8AD
:10407000F88300BFD8940A08FFFFEF7FE2940A0894
:10408000FFFFEF41DC940A08FFFFEFC10000E03FB3
:1040900000002440E0940A0837B59DF81810054642
:1040A0000091FFF74BFF04462846FFF7D8FE204457
:1040B00003B030BD0CB42DE9F04387B000AF07F179
:1040C000380454F8049B05460E4623464A461421FC
:1040D000381D3C60FEF70AF8132805D8391D28461C
:1040E000FFF7A6FE044613E000F1080323F00703E0
:1040F000E846ADEB030D411C23464A4668463C604A
:10410000FDF7F4FF69462846FFF792FE0446C546D0
:104110001EB12846FFF7A3FE044420461C37BD46C7
:10412000BDE8F04302B0704770474174704708B56E
:10413000007CFDF7F7FD20EAE07008BD08B5007CC3
:10414000FDF7C8FD20EAE07008BD08B5007CFDF76A
:10415000D1FD30EA200028BF4FF0FF3008BD08B580
:10416000007CFDF7BFFD30EA200028BF4FF0FF3094
:1041700008BD007CFDF7C6BD10B50446142100F053
:10418000CFF9204610BD70B5457C04460E4625B9D2
:10419000007CFDF7C7FD002805DD3146207CBDE829
:1041A0007040FDF78FBD284670BD000010B5044675
:1041B00008461146002262604FF47A72A260054AF6
:1041C00020742260012262741A46FDF76BFD2046BE
:1041D00010BD00BFF0940A080023007CFDF7AABDC3
:1041E0000022FFF7F9BF007CFDF764BD007CFDF7FE
:1041F00091BD000038B50C4D296811F0010411D1B2
:104200002846FBF75BFF68B1084A2146084B09487E
:10421000FFF7CCFF2846FBF756FF074A074905483A
:1042200000F070F9034838BDDC050020E0050020EF
:1042300058050020440500200401002029410A08F7
:104240004FF6FF72034B0020187058809A80FDF7DC
:10425000E1BE00BF6406002000230360436083606A
:10426000037310B50C6804604C6844608C6884600B
:104270000B604B608B6010BD10B504460068FDF705
:10428000FDFE204610BD10B50446006808B1FDF7DC
:10429000F5FE00232360A360636010BD38B50446BB
:1042A0000D4600680131FDF7F1FE10B184E82100F0
:1042B000012038BD10B50368044613B143688B4232
:1042C00007D22046FFF7EAFF20B1A3680BB92268A6
:1042D0001370012010BD70B50E46114604461546F8
:1042E000FFF7E8FF18B92046FFF7CDFF09E02A469F
:1042F0003146A560206801F0BFFA2268A36800215A
:10430000D154204670BD38B5002304460360436095
:10431000836003730D4639B1084602F041F829461F
:1043200002462046FFF7D7FF204638BD884210B529
:104330000B46044607D0096819B19A68FFF7CBFF0E
:1043400001E0FFF7A0FF204610BD10B50446002392
:104350000360436083600373FFF7E8FF204610BDEE
:1043600038B50B4D296811F001040FD12846FBF731
:10437000A5FE58B121460748FEF746FA2846FBF746
:10438000A2FE054A0549034800F0BCF8014838BDC3
:104390006C0600207006002004010020AF270A08E8
:1043A00013B5084C00231A46194600932046FEF721
:1043B0008DFB2046044A054902B0BDE8104000F0DC
:1043C000A1B800BF84060020040100201D2A0A08AD
:1043D00070B50C4C0C4E0D4D00212046FEF764F9D3
:1043E00020460B4C3246294600F08CF8012120462D
:1043F000FEF75AF9324629462046BDE8704000F0E3
:1044000081B800BFA40600200401002099260A08F4
:10441000B406002010B504460F48FEF7C5F928B1D0
:10442000A4F10D03022B01D8002010BDFFF798FF67
:10443000FEF719FA08B1012CF6D9FFF7DBFEFFF7FA
:10444000D5FE18B1A4F11203012BEDD9172C8CBFA6
:104450000020012010BD00BFA4060020172838B599
:1044600004460D460AD8FF2908D0FFF7D3FF28B12C
:1044700029462046BDE83840FDF7FCBC38BD38B5BC
:1044800004460D46FDF7FEFCFF2810D0062804D890
:104490004D2323FA00F0C30709D42046FFF7BAFFE3
:1044A00028B129462046BDE83840FDF7F3BC38BDA9
:1044B00010B50446FDF7E6FC0438C0B2012808D95F
:1044C0002046FFF7A7FF20B12046BDE81040FDF7CA
:1044D000E9BC002010BD10B5044609289CBF0A3471
:1044E000A4B22046FFF796FF50B103212046FDF706
:1044F000B9FC032804D12046BDE81040FDF7EABC12
:10450000002010BD0B460146184601F0AFB8000070
:10451000024B1868BFF35F8F704700BFC4060020CE
:10452000FBF7BFBD10B5002814BF04460124204688
:10453000FDF79CFD20B9FFF7EBFF08B18047F6E7D8
:1045400010BD08B5FDF7DAFD184B1A68D1075CBF3E
:1045500001221A60164B1A68D2075CBF01221A604A
:10456000144B1A68D0075CBF01221A60124B1A68FC
:10457000D1075CBF01221A60104B1A68D2075CBFDA
:1045800001221A600E4B1A68D0075CBF01221A6024
:104590000C4B1A68D1075CBF01221A600A4B1A68DB
:1045A000D2075CBF01221A60704700BFE4060020FA
:1045B000E0060020DC060020D8060020D4060020FB
:1045C000D0060020CC060020C8060020244B1A6824
:1045D000D0075CBF01221A60224B1A68D1075CBF6A
:1045E00001221A60204B1A68D2075CBF01221A60B0
:1045F0001E4B1A68D0075CBF01221A601C4B1A6858
:10460000D1075CBF01221A601A4B1A68D2075CBF3F
:1046100001221A60184B1A68D0075CBF01221A6089
:10462000164B1A68D1075CBF01221A60144B1A6836
:10463000D2075CBF01221A60124B1A68D0075CBF18
:1046400001221A60104B1A68D1075CBF01221A6060
:104650000E4B1A68D2075CBF01221A60704700BF78
:1046600014070020100700200C0700200807002076
:104670000407002000070020FC060020F8060020A8
:10468000F4060020F0060020EC060020E8060020DA
:10469000244B1A68D0075CBF01221A60224B1A68AB
:1046A000D1075CBF01221A60204B1A68D2075CBF99
:1046B00001221A601E4B1A68D0075CBF01221A60E3
:1046C0001C4B1A68D1075CBF01221A601A4B1A688A
:1046D000D2075CBF01221A60184B1A68D0075CBF72
:1046E00001221A60164B1A68D1075CBF01221A60BA
:1046F000144B1A68D2075CBF01221A60124B1A6869
:10470000D0075CBF01221A60104B1A68D1075CBF4A
:1047100001221A600E4B1A68D2075CBF01221A6090
:10472000704700BF44070020400700203C070020DE
:104730003807002034070020300700202C07002015
:104740002807002024070020200700201C07002045
:1047500018070020184B1A68D1075CBF01221A60A5
:10476000164B1A68D2075CBF01221A60144B1A68F4
:10477000D0075CBF01221A60124B1A68D1075CBFD8
:1047800001221A60104B1A68D2075CBF01221A601E
:104790000E4B1A68D0075CBF01221A600C4B1A68D6
:1047A000D1075CBF01221A600A4B1A68D2075CBFAE
:1047B00001221A60704700BF6407002060070020D4
:1047C0005C070020580700205407002050070020F5
:1047D0004C0700204807002081F0004102E000BFA4
:1047E00083F0004330B54FEA41044FEA430594EAB1
:1047F000050F08BF90EA020F1FBF54EA000C55EAEC
:10480000020C7FEA645C7FEA655C00F0E2804FEABC
:104810005454D4EB5555B8BF6D420CDD2C4480EA9E
:10482000020281EA030382EA000083EA010180EACE
:10483000020281EA0303362D88BF30BD11F0004F1C
:104840004FEA01314FF4801C4CEA113102D0404252
:1048500061EB410113F0004F4FEA03334CEA13338D
:1048600002D0524263EB430394EA050F00F0A780A5
:10487000A4F10104D5F1200E0DDB02FA0EFC22FAA0
:1048800005F2801841F1000103FA0EF2801843FA94
:1048900005F359410EE0A5F120050EF1200E012A85
:1048A00003FA0EFC28BF4CF0020C43FA05F3C018C3
:1048B00051EBE37101F0004507D54FF0000EDCF13C
:1048C000000C7EEB00006EEB0101B1F5801F1BD3E5
:1048D000B1F5001F0CD349085FEA30004FEA3C0CE9
:1048E00004F101044FEA445212F5800F80F09A80DF
:1048F000BCF1004F08BF5FEA500C50F1000041EBE3
:10490000045141EA050130BD5FEA4C0C404141EBE6
:10491000010111F4801FA4F10104E9D191F0000F0D
:1049200004BF01460020B1FA81F308BF2033A3F190
:104930000B03B3F120020CDA0C3208DD02F1140C87
:10494000C2F10C0201FA0CF021FA02F10CE002F1C2
:104950001402D8BFC2F1200C01FA02F120FA0CFCBB
:10496000DCBF41EA0C019040E41AA2BF01EB045104
:10497000294330BD6FEA04041F3C1CDA0C340EDC02
:1049800004F11404C4F1200220FA04F001FA02F345
:1049900040EA030021FA04F345EA030130BDC4F103
:1049A0000C04C4F1200220FA02F001FA04F340EAF8
:1049B0000300294630BD21FA04F0294630BD94F0A9
:1049C000000F83F4801306BF81F480110134013D90
:1049D0004EE77FEA645C18BF7FEA655C29D094EA01
:1049E000050F08BF90EA020F05D054EA000C04BF7F
:1049F0001946104630BD91EA030F1EBF002100206A
:104A000030BD5FEA545C05D14000494128BF41F008
:104A1000004130BD14F580043CBF01F5801130BD6C
:104A200001F0004545F0FE4141F470014FF00000F7
:104A300030BD7FEA645C1ABF194610467FEA655CA8
:104A40001CBF0B46024650EA013406BF52EA03354A
:104A500091EA030F41F4002130BD00BF90F0000F38
:104A600004BF0021704730B54FF4806404F1320474
:104A70004FF000054FF0000150E700BF90F0000F2D
:104A800004BF0021704730B54FF4806404F1320454
:104A900010F0004548BF40424FF000013EE700BF24
:104AA00042004FEAE2014FEA31014FEA02701FBFB4
:104AB00012F07F4393F07F4F81F06051704792F086
:104AC000000F14BF93F07F4F704730B54FF4607400
:104AD00001F0004521F0004120E700BF50EA01024B
:104AE00008BF704730B54FF000050AE050EA0102F8
:104AF00008BF704730B511F0004502D5404261EB68
:104B000041014FF4806404F132045FEA915C3FF4A8
:104B1000DCAE4FF003025FEADC0C18BF03325FEA41
:104B2000DC0C18BF033202EBDC02C2F1200300FAF6
:104B300003FC20FA02F001FA03FE40EA0E0021FA1B
:104B400002F11444C1E600BF70B54FF0FF0C4CF405
:104B5000E06C1CEA11541DBF1CEA135594EA0C0FBB
:104B600095EA0C0F00F0DEF82C4481EA030621EAF6
:104B70004C5123EA4C5350EA013518BF52EA033531
:104B800041F4801143F4801338D0A0FB02CE4FF0E3
:104B90000005E1FB02E506F00042E0FB03E54FF013
:104BA0000006E1FB03569CF0000F18BF4EF0010E0B
:104BB000A4F1FF04B6F5007F64F5407404D25FEA07
:104BC0004E0E6D4146EB060642EAC62141EA5551BA
:104BD0004FEAC52040EA5E504FEACE2EB4F1FD0CFC
:104BE00088BFBCF5E06F1ED8BEF1004F08BF5FEA7A
:104BF000500E50F1000041EB045170BD06F000462C
:104C000046EA010140EA020081EA0301B4EB5C04D8
:104C1000C2BFD4EB0C0541EA045170BD41F48011D0
:104C20004FF0000E013C00F3AB8014F1360FDEBFF5
:104C3000002001F0004170BDC4F10004203C35DAD1
:104C40000C341BDC04F11404C4F1200500FA05F354
:104C500020FA04F001FA05F240EA020001F00042F5
:104C600021F0004110EBD37021FA04F642EB06016B
:104C70005EEA430E08BF20EAD37070BDC4F10C0495
:104C8000C4F1200500FA04F320FA05F001FA04F259
:104C900040EA020001F0004110EBD37041F1000145
:104CA0005EEA430E08BF20EAD37070BDC4F1200550
:104CB00000FA05F24EEA020E20FA04F301FA05F2B8
:104CC00043EA020321FA04F001F0004121FA04F260
:104CD00020EA020000EBD3705EEA430E08BF20EA30
:104CE000D37070BD94F0000F0FD101F0004640006A
:104CF00041EB010111F4801F08BF013CF7D041EAEC
:104D0000060195F0000F18BF704703F000465200EF
:104D100043EB030313F4801F08BF013DF7D043EAC0
:104D20000603704794EA0C0F0CEA135518BF95EA76
:104D30000C0F0CD050EA410618BF52EA4306D1D1FD
:104D400081EA030101F000414FF0000070BD50EA1C
:104D5000410606BF1046194652EA430619D094EAA6
:104D60000C0F02D150EA013613D195EA0C0F05D190
:104D700052EA03361CBF104619460AD181EA0301E4
:104D800001F0004141F0FE4141F470014FF000009C
:104D900070BD41F0FE4141F4780170BD70B54FF037
:104DA000FF0C4CF4E06C1CEA11541DBF1CEA1355B7
:104DB00094EA0C0F95EA0C0F00F0A7F8A4EB050499
:104DC00081EA030E52EA03354FEA013100F0888090
:104DD0004FEA03334FF0805545EA131343EA126359
:104DE0004FEA022245EA111545EA10654FEA00260E
:104DF0000EF000419D4208BF964244F1FD0404F5C7
:104E0000407402D25B084FEA3202B61A65EB030522
:104E10005B084FEA32024FF480104FF4002CB6EBDF
:104E2000020E75EB030E22BFB61A754640EA0C005F
:104E30005B084FEA3202B6EB020E75EB030E22BF9F
:104E4000B61A754640EA5C005B084FEA3202B6EBE0
:104E5000020E75EB030E22BFB61A754640EA9C009F
:104E60005B084FEA3202B6EB020E75EB030E22BF6F
:104E7000B61A754640EADC0055EA060E18D04FEA2D
:104E8000051545EA16754FEA06164FEAC30343EACD
:104E900052734FEAC2025FEA1C1CC0D111F4801F9A
:104EA0000BD141EA00014FF000004FF0004CB6E793
:104EB00011F4801F04BF01430020B4F1FD0C88BF32
:104EC000BCF5E06F3FF6AFAEB5EB030C04BFB6EB3D
:104ED000020C5FEA500C50F1000041EB045170BD30
:104EE0000EF0004E4EEA113114EB5C04C2BFD4EB5D
:104EF0000C0541EA045170BD41F480114FF0000EE1
:104F0000013C90E645EA060E8DE60CEA135594EA5C
:104F10000C0F08BF95EA0C0F3FF43BAF94EA0C0F5F
:104F20000AD150EA01347FF434AF95EA0C0F7FF4D4
:104F300025AF104619462CE795EA0C0F06D152EA28
:104F400003353FF4FDAE1046194622E750EA41060C
:104F500018BF52EA43067FF4C5AE50EA41047FF41D
:104F60000DAF52EA43057FF4EBAE12E74FF0FF3C82
:104F700006E000BF4FF0010C02E000BF4FF0010C53
:104F80004DF804CD4FEA410C7FEA6C5C4FEA430CCC
:104F900018BF7FEA6C5C1BD001B050EA410C0CBF1B
:104FA00052EA430C91EA030F02BF90EA020F00207D
:104FB000704710F1000F91EA030F58BF994208BFE4
:104FC00090422CBFD8176FEAE37040F001007047A1
:104FD0004FEA410C7FEA6C5C02D150EA013C07D1F8
:104FE0004FEA430C7FEA6C5CD6D152EA033CD3D043
:104FF0005DF8040B704700BF8446104662468C463D
:105000001946634600E000BF01B5FFF7B7FF00286F
:1050100048BF10F1000F01BD4DF808EDFFF7F4FF98
:105020000CBF012000205DF808FB00BF4DF808ED23
:10503000FFF7EAFF34BF012000205DF808FB00BF46
:105040004DF808EDFFF7E0FF94BF012000205DF868
:1050500008FB00BF4DF808EDFFF7CEFF94BF01201D
:1050600000205DF808FB00BF4DF808EDFFF7C4FF16
:1050700034BF012000205DF808FB00BF4FEA410C5F
:105080007FEA6C5C02D150EA013C0AD14FEA430C42
:105090007FEA6C5C02D152EA033C02D14FF000007F
:1050A00070474FF0010070474FEA410212F50012BD
:1050B00015D211D56FF47873B3EB625212D94FEA5F
:1050C000C12343F0004343EA505311F0004F23FA49
:1050D00002F018BF404270474FF00000704750EA9E
:1050E000013005D111F0004008BF6FF0004070475B
:1050F0004FF00000704700BF4A0011D212F50012B5
:1051000011D20DD56FF47873B3EB62520ED44FEA1F
:10511000C12343F0004343EA505323FA02F070479F
:105120004FF00000704750EA013002D14FF0FF30DD
:1051300070474FF00000704780F0004002E000BF71
:1051400081F0004142001FBF5FEA410392EA030F72
:105150007FEA226C7FEA236C6AD04FEA1262D2EBBC
:105160001363C1BFD218414048404140B8BF5B42C1
:10517000192B88BF704710F0004F40F4000020F05A
:105180007F4018BF404211F0004F41F4000121F070
:105190007F4118BF494292EA030F3FD0A2F10102BA
:1051A00041FA03FC10EB0C00C3F1200301FA03F1F8
:1051B00000F0004302D5494260EB4000B0F5000F1B
:1051C00013D3B0F1807F06D340084FEA310102F1DA
:1051D0000102FE2A51D2B1F1004F40EBC25008BF8C
:1051E00020F0010040EA03007047490040EB000056
:1051F00010F4000FA2F10102EDD1B0FA80FCACF185
:10520000080CB2EB0C0200FA0CF0AABF00EBC25083
:1052100052421843BCBFD0401843704792F0000F71
:1052200081F4000106BF80F400000132013BB5E7C4
:105230004FEA41037FEA226C18BF7FEA236C21D03A
:1052400092EA030F04D092F0000F08BF084670479F
:1052500090EA010F1CBF0020704712F07F4F04D16D
:10526000400028BF40F00040704712F100723CBF80
:1052700000F50000704700F0004343F0FE4040F4AA
:10528000000070477FEA226216BF08467FEA236368
:105290000146420206BF5FEA412390EA010F40F453
:1052A000800070474FF0000304E000BF10F000439F
:1052B00048BF40425FEA000C08BF704743F0964386
:1052C00001464FF000001CE050EA010208BF7047A1
:1052D0004FF000030AE000BF50EA010208BF704728
:1052E00011F0004302D5404261EB41015FEA010C3D
:1052F00002BF84460146002043F0B64308BFA3F135
:105300008053A3F50003BCFA8CF2083AA3EBC25316
:1053100010DB01FA02FC634400FA02FCC2F1200235
:10532000BCF1004F20FA02F243EB020008BF20F06C
:105330000100704702F1200201FA02FCC2F12002D2
:1053400050EA4C0021FA02F243EB020008BF20EAC7
:10535000DC7070474FF0FF0C1CEAD0521EBF1CEAF5
:10536000D15392EA0C0F93EA0C0F6FD01A4480EAE3
:10537000010C400218BF5FEA41211ED04FF00063CC
:1053800043EA501043EA5111A0FB01310CF00040F8
:10539000B1F5000F3EBF490041EAD3715B0040EA1E
:1053A000010062F17F02FD2A1DD8B3F1004F40EBEE
:1053B000C25008BF20F00100704790F0000F0CF0C1
:1053C000004C08BF49024CEA502040EA51207F3A85
:1053D000C2BFD2F1FF0340EAC250704740F4000060
:1053E0004FF00003013A5DDC12F1190FDCBF00F051
:1053F00000407047C2F10002410021FA02F1C2F1FF
:10540000200200FA02FC5FEA310040F1000053EA9A
:105410004C0308BF20EADC70704792F0000F00F0E8
:10542000004C02BF400010F4000F013AF9D040EAEE
:105430000C0093F0000F01F0004C02BF490011F482
:10544000000F013BF9D041EA0C018FE70CEAD15380
:1054500092EA0C0F18BF93EA0C0F0AD030F0004C00
:1054600018BF31F0004CD8D180EA010000F00040B4
:10547000704790F0000F17BF90F0004F084691F072
:10548000000F91F0004F14D092EA0C0F01D14202AC
:105490000FD193EA0C0F03D14B0218BF084608D175
:1054A00080EA010000F0004040F0FE4040F40000BF
:1054B000704740F0FE4040F4400070474FF0FF0C52
:1054C0001CEAD0521EBF1CEAD15392EA0C0F93EA99
:1054D0000C0F69D0A2EB030280EA010C49024FEAEB
:1054E000402037D04FF0805343EA111143EA1013A4
:1054F0000CF000408B4238BF5B0042F17D024FF45C
:10550000000C8B4224BF5B1A40EA0C00B3EB510F36
:1055100024BFA3EB510340EA5C00B3EB910F24BF1F
:10552000A3EB910340EA9C00B3EBD10F24BFA3EBA4
:10553000D10340EADC001B0118BF5FEA1C1CE0D16C
:10554000FD2A3FF650AF8B4240EBC25008BF20F01F
:10555000010070470CF0004C4CEA50207F32C2BF73
:10556000D2F1FF0340EAC250704740F400004FF010
:105570000003013A37E792F0000F00F0004C02BF41
:10558000400010F4000F013AF9D040EA0C0093F00B
:10559000000F01F0004C02BF490011F4000F013B65
:1055A000F9D041EA0C0195E70CEAD15392EA0C0FCD
:1055B00008D142027FF47DAF93EA0C0F7FF470AF05
:1055C000084676E793EA0C0F04D14B023FF44CAF48
:1055D00008466EE730F0004C18BF31F0004CCAD1DD
:1055E00030F000427FF45CAF31F000437FF43CAF19
:1055F0005FE700BF094B70B51C680646256C3DB9D6
:105600001A20FCF733FD1A222064294600F05AF9CB
:10561000216C3046BDE8704000F002B8B4000020B4
:1056200010B50C46416986B001F26C71036982695C
:105630000491016803EB43030391416802EB4202CA
:10564000029181680191C1682046009104490B4490
:1056500004490A440449FCF729FD204606B010BD60
:105660002E950A0819950A0852950A0810B5054C96
:1056700013462CB10A4601460220AFF3008010BD4C
:10568000204610BD0000000038B5074B05461C68D9
:10569000E36B1BB92420FCF7E9FCE063E16B2846CF
:1056A000BDE8384000F002B8B40000202DE9F04118
:1056B0000C46804601F044FA21460746404601F078
:1056C00043FA4669044606F26C76B30705D16422B4
:1056D00096FBF2F302FB13634BB94FF4C87596FBCC
:1056E000F5F305FB1365B5FA85F35B0900E00123CB
:1056F0005F4A302505FB032501F052F801F052F80E
:105700005C4B1B68F3B17B689E4205D13968D8F8C1
:105710000030FA6941B90AE0304600F099FF0028EC
:10572000F4D14FF0FF330DE0934208DB01E09342E8
:1057300007DABA6B9342ACBF0023012302E00023D7
:1057400000E001232362236A3C20012B0CBFF96B8C
:10575000396A4FF4616391FBF3F603FB161393FB75
:10576000F0F200FB123061682368891AA2681B1AE4
:10577000921B3B2B23606160A26003DD01316160FD
:105780003C3B04E0002B03DA013961603C332360C9
:1057900063683B2B03DD0132A2603C3B04E0002B3D
:1057A00003DA013AA2603C336360A368172B22DD61
:1057B000E269183B0132E261A269A3600132062A64
:1057C000C8BF0022A261E26823690132E26055F895
:1057D00023108A4246DD01330C2B08BF6369A2EB1C
:1057E0000102E26005BF013300222361226104BF90
:1057F0006361E26136E0002B34DAE2691833013A82
:10580000E261A269A360013A48BF0622A261E26890
:10581000013AE26032BB2369013B01D423611DE000
:105820000B23236163695A1E12F0030F626103F2B6
:105830006B7305D1642193FBF1F201FB12324AB97B
:105840004FF4C87193FBF1F201FB1233B3FA83F307
:105850005B0900E0012303F5B673E361236955F8A2
:105860002330E36000F09DFF2046BDE8F08100BFDB
:10587000D8960A088408002010B5431E0A449142B5
:1058800004D011F8014B03F8014FF8E710BD88422E
:1058900010B501EB020301D8421E0BE09842FBD287
:1058A0008118D21AD34204D013F8014D01F8014DEA
:1058B000F8E710BD994204D011F8014B02F8014FEE
:1058C000F8E710BD03460244934202D003F8011BDF
:1058D000FAE7704738B5124B05461C68A36BD3B97D
:1058E0001820FCF7C3FB43F20E33A06303804AF693
:1058F000CD33438041F2342383804EF26D63C38005
:105900004DF6EC630381052343810B238381012240
:105910000023C0E90423A36B00221D615A6138BD36
:10592000B4000020C9B2034610F8012B1AB191420D
:10593000F9D11846704700290CBF1846002070475F
:1059400010B50446FFF7EEFF18B9204600F028FD19
:10595000204410BD10F8012B11F8013B012A28BF8B
:105960009A42F7D0D01A7047034611F8012B03F87A
:10597000012B002AF9D17047416910B58B070CD172
:1059800040F26C730029A8BF6FF063030B446424DA
:1059900093FBF4F204FB123383B940F26C730029D9
:1059A000A8BF6FF063034FF4C8720B4493FBF2F18E
:1059B00002FB1133B3FA83F2520900E0012283693A
:1059C000C1695B0003EB01131344212B0EDC202B78
:1059D0002FDA0D2B02DC0A2B05DB2AE0102B26DB4D
:1059E000112B26DD1C3B012B23D920E041F2C6629E
:1059F00093420EDC41F2C262934216DA41F2A26295
:105A0000934212D013DBA3F5B553123B022B0CD9F2
:105A10000DE041F2D562934207D041F2D762934242
:105A200003D041F2D362934201D1012010BD002086
:105A300010BD4FF0FF3010BD2DE9F04F0E4693B072
:105A40001D460746914600F0F3FD002306931C46D1
:105A5000731E0390029399F80030002B00F092849B
:105A6000252B08D0029A944280F090843B5509F18E
:105A700001090134EFE799F801A0BAF1300F07D01E
:105A8000BAF12B0F04D009F101094FF0000A01E02F
:105A900009F1020999F80030313B082B08D8484633
:105AA0000A220AA900F0BAFDDDF82890804601E03C
:105AB0004FF0000899F80030452B01D04F2B01D151
:105AC00009F1010999F80000A0F12503552B00F216
:105AD0005D84DFE813F04A045B045B045B045B0451
